S01100004D7950726F6A6563742E7372656376
S1130000C048002031010000B5010000B501000026
S113001000000000000000000000000000000000DC
S1130020000000000000000000000000094800007B
S11300300000000000000000414900008949000060
S1130040B5010000B5010000652B0000B5010000FA
S1130050B5010000B5010000B5010000B5010000C4
S1130060B5010000B5010000B5010000B5010000B4
S1130070B5010000B5010000B5010000B5010000A4
S1130080B5010000B5010000B5010000B501000094
S1130090C5380000B5010000B5010000B50100003D
S11300A0B5010000B5010000B5010000B501000074
S11300B0B5010000B5010000B501000010B5064C03
S11300C02378002B07D1054B002B02D0044800E015
S11300D000BF0123237010BD2C000020000000008D
S11300E058870000084B10B5002B03D00749084877
S11300F000E000BF07480368002B00D110BD064B89
S1130100002BFBD09847F9E70000000030000020E6
S113011058870000588700000000000080B500AF39
S1130120024B9847C046BD4680BDC046410C000006
S113013080B582B000AF164B7B60164B3B607A688B
S11301403B689A420CD007E03B681A1D3A607A6813
S1130150111D796012681A603A680F4B9A42F3D302
S11301600E4B3B6004E03B681A1D3A6000221A60A3
S11301703A680B4B9A42F6D30A4B7B600A4B7A6877
S1130180FF218A439A60094B9847094B9847FEE739
S113019058870000000000202C0000202C000020C4
S11301A0BC2800200000000000ED00E07183000086
S11301B0C539000080B500AFFEE780B584B000AF5C
S11301C0F8607A600B23FB180A1C1A700B23FB18C7
S11301D01A78FB68203292007968D150C046BD4637
S11301E004B080BD80B582B000AF78607B685B6985
S11301F0802292001A437B685A61C046BD4602B011
S113020080BD80B582B000AF78607B68DB69102266
S11302101A437B68DA61C046BD4602B080BD80B532
S113022082B000AF78607B68DB69802252011A4398
S11302307B68DA61C046BD4602B080BD80B582B03D
S113024000AF78607B68DB69802292021A437B6886
S1130250DA61C046BD4602B080BD80B582B000AF51
S113026078607B68DB698022D2021A437B68DA619A
S1130270C046BD4602B080BD80B584B000AFF86012
S11302807A600B23FB180A1C1A700B23FB181B78CB
S1130290FA68DB01D31808337A681A60C046BD4691
S11302A004B080BD80B584B000AFF8607A600B23E1
S11302B0FB180A1C1A700B23FB181B78FA68DB0165
S11302C0D31804337A681A60C046BD4604B080BDB2
S11302D080B584B000AFF8607A600B23FB180A1C69
S11302E01A700B23FB181B78FA68DB01D318183338
S11302F07A681A60C046BD4604B080BD80B584B03B
S113030000AFF8607A600B23FB180A1C1A700B23E9
S1130310FB181B78FA68DB01D31814337A681A6067
S1130320C046BD4604B080BD90B585B000AF7860CE
S11303300C0010001900FB1C221C1A70BB1C021CB0
S11303401A707B1C0A1C1A70FB1C1978BB1C1A78C7
S11303500F23FB1878683024C90141188A18121930
S113036012781A700F23FB180F22BA1812780F2173
S11303708A431A707B1C1B780F221340D9B20F23B7
S1130380FB180F22BA1812780A431A70FB1C1A7849
S1130390BB1C1B7879683020D2018A18D3181B182B
S11303A00F22BA1812781A70C046BD4605B090BD27
S11303B090B585B000AF78600C0010001900FB1CEC
S11303C0221C1A70BB1C021C1A707B1C0A1C1A709B
S11303D0FB1C1978BB1C1A780F23FB18786830248F
S11303E0C90141188A18121912781A700F23FB18C0
S11303F00F22BA1812780F210A401A707B1C1B783E
S11304001B01D9B20F23FB180F22BA1812780A4322
S11304101A70FB1C1A78BB1C1B7879683020D20137
S11304208A18D3181B180F22BA1812781A70C046EB
S1130430BD4605B090BD90B585B000AF78600C00A6
S113044010001900FB1C221C1A70BB1C021C1A7021
S11304507B1C0A1C1A70FB1C1978BB1C1A780F230E
S1130460FB1878684024C90141188A1812191278B7
S11304701A700F23FB180F22BA18127801218A432D
S11304801A707B1C19780F23FB180F22BA181278E4
S11304900A431A70FB1C1A78BB1C1B78796840202D
S11304A0D2018A18D3181B180F22BA1812781A709E
S11304B0C046BD4605B090BDB0B582B000AF78600F
S11304C008001100FB1C021C1A70BB1C0A1C1A70C9
S11304D0FB1C1A78BB1C1B78F91C0878B91C09781A
S11304E07C684025C0012018411849190978C9B20F
S11304F004200143CCB279684020D2018A18D31871
S11305001B18221C1A70C046BD4602B0B0BDB0B55F
S113051082B000AF786008001100FB1C021C1A7046
S1130520BB1C0A1C1A70FB1C1A78BB1C1B78F91C18
S11305300878B91C09787C684025C0012018411846
S113054049190978C9B204208143CCB279684020A2
S1130550D2018A18D3181B18221C1A70C046BD4633
S113056002B0B0BD80B584B000AFF8607A600B23F0
S1130570FB180A1C1A700B23FB181B78FA68DB01A2
S1130580D31828337A681A60C046BD4604B080BDCB
S113059080B582B000AF39601100FB1D021C1A70D7
S11305A0BB1D0A1C1A70BB1D1B78012B25D0022B06
S11305B043D0002B63D13A68FB1D1978C023DB05B7
S11305C01800344B98473B681B041B0C8022D2054F
S11305D01A43FB1D19788223DB0518002E4B98471C
S11305E03B681B0CC02212061A43FB1D1978822398
S11305F0DB051800284B984747E03A68FB1D19783B
S1130600C023DB051800234B98473B681B041B0CD5
S1130610224A1A43FB1D19788223DB0518001E4B5E
S113062098473B681B0C1E4A1A43FB1D197882230A
S1130630DB051800184B984727E03A68FB1D19782A
S1130640C023DB051800174B98473B681B041B0CA1
S11306508022D2051A43FB1D19788223DB0518007A
S11306600D4B98473B681B0CC02212061A43FB1D16
S113067019788223DB051800074B984705E00A4BDD
S1130680462219000020094B9847C046BD4602B0D7
S113069080BDC046A50200006505000000000240C0
S11306A0000002C079020000DC830000FD1A000093
S11306B080B582B000AF39601100FB1D021C1A70B6
S11306C0BB1D0A1C1A70BB1D1B78002B08D03A688E
S11306D0FB1D1978C023DB051800074B984707E07A
S11306E03A68FB1D1978C023DB051800034B9847B3
S11306F0C046BD4602B080BDD1020000FD0200002C
S113070090B583B000AF040008001100FB1D221C4B
S11307101A70BB1D021C1A707B1D0A1C1A707B1DEB
S11307201B78012B0DD0022B2BD0002B49D1BB1DE4
S11307301A78FB1D19788223DB051800264B98478D
S113074046E0BB1D1B7801229A40FB1D1978C0238B
S1130750DB051800214B9847BB1D1A78FB1D19783F
S11307608223DB0518001E4B9847BB1D1B78012212
S11307709A40FB1D1978C023DB051800194B9847D4
S113078026E0BB1D1B7801229A40FB1D1978C0236B
S1130790DB051800114B9847BB1D1A78FB1D19780F
S11307A08223DB0518000E4B9847BB1D1B780122E2
S11307B09A40FB1D1978C023DB0518000A4B9847A3
S11307C006E00A4B892219000020094B9847C046CD
S11307D0C046BD4603B090BD0F050000A502000051
S11307E0B9040000D1020000FD020000DC83000017
S11307F0FD1A000090B585B000AF786039607B6861
S11308005A090F23FB181A707B68DAB20E23FB18FF
S11308101F210A401A703B6801330BD10E23FB18C9
S11308201A780F23FB1819788223D80500231B4C50
S1130830A0472FE00E23FB181A780F23FB18197812
S11308408223D8050123154CA0470E23FB181B78DF
S1130850012213400FD00E23FB181B785B08DAB279
S11308603B68DCB20F23FB1819788223D8052300D8
S11308700B4CA0470EE00E23FB181B785B08DAB282
S11308803B68DCB20F23FB1819788223D8052300B8
S1130890044CA047C046BD4605B090BD37040000D7
S11308A0B10300002903000080B582B000AF02004C
S11308B0FB1D1A70BB1D0A1C1A70FB1D1B785B09FB
S11308C0D8B2FB1D1B781F221340D9B2BB1D1B7865
S11308D01A00034B9847C046BD4602B080BDC046CF
S11308E00107000080B582B000AF786039603A68D3
S11308F07B6811001800034B9847C046BD4602B000
S113090080BDC046F507000080B582B000AF02008C
S1130910FB1D1A70BB1D0A1C1A70FB1D1B785B099A
S1130920D8B2FB1D1B781F22134001229A401100EC
S1130930BB1D1B781A00034B9847C046BD4602B046
S113094080BDC0469105000080B582B000AF0200B2
S1130950FB1D1A70BB1D0A1C1A70FB1D1B785B095A
S1130960D8B2FB1D1B781F22134001229A401100AC
S1130970BB1D1B781A00034B9847C046BD4602B006
S113098080BDC046B106000080B500AF024B984759
S1130990C046BD4680BDC0466D23000080B500AF93
S11309A000212920044B9847044B19002920044BAB
S11309B09847C046BD4680BD0909000001002900D2
S11309C0E508000080B500AF064B1800064B9847B9
S11309D0064B402221211800054B9847C046BD46CE
S11309E080BDC046000800403D020000001C0040DD
S11309F0BB01000080B500AF074B9847074B9847F1
S1130A00074B984702000749074B1800074B9847C4
S1130A10C046BD4680BDC046C50900009D09000012
S1130A203D23000000440042B4270020C10D000013
S1130A3080B500AF00210820044B9847044B1900EF
S1130A400820044B9847C046BD4680BD09090000F4
S1130A5001000800E508000080B500AF064B18004F
S1130A60064B9847064B402222211800054B984715
S1130A70C046BD4680BDC046000800405B02000081
S1130A80001C0040BB01000080B500AF074B984735
S1130A90074B9847074B984702000749074B180034
S1130AA0074B9847C046BD4680BDC046590A000062
S1130AB0310A00003D23000000480042B82700200E
S1130AC0C10D000080B500AF034B1800034B9847DD
S1130AD0C046BD4680BDC04600080040E501000098
S1130AE080B500AF054B9847054A064B1100180026
S1130AF0054B9847C046BD4680BDC046C50A0000A8
S1130B0000240040BC2700209915000080B500AFE8
S1130B10064B19001620064B9847064B1900172060
S1130B20034B9847C046BD4680BDC0460200160030
S1130B30E50800000200170080B500AF094B402211
S1130B4016211800084B9847064B42221221180020
S1130B50054B9847054B1800054B9847C046BD46C2
S1130B6080BDC046001C0040BB01000000080040DE
S1130B700302000080B500AF064B98470649074BB7
S1130B8000221800064B9847064B9847C046BD46BE
S1130B9080BDC046390B000000100042A827002089
S1130BA0551800000D0B000080B500AF064B19006E
S1130BB02C20064B9847064B19002D20034B9847D1
S1130BC0C046BD4680BDC04604002C00E5080000B8
S1130BD004002D0080B500AF064B1800064B984763
S1130BE0064B40221E211800054B9847C046BD46BF
S1130BF080BDC046000800401F020000001C0040E9
S1130C00BB01000080B500AF074B9847074B9847DE
S1130C10074B984702000749074B1800074B9847B2
S1130C20C046BD4680BDC046D50B0000A90B0000E0
S1130C304538000000300042D4270020B9160000D7
S1130C4080B500AF544B984701210920534B984776
S1130C5001210920524B984701235B4219000920C6
S1130C60504B984701210A204C4B984701210A20F8
S1130C704B4B984701235B4219000A20494B984784
S1130C8001210B20454B984701210B20444B9847E9
S1130C9001235B4219000B20424B98470121142089
S1130CA03E4B9847012114203D4B984701235B425A
S1130CB0190014203B4B984701211520374B9847C6
S1130CC001211520364B984701235B42190015205A
S1130CD0344B984701212320304B9847012123208E
S1130CE02F4B984701235B42190023202D4B984733
S1130CF001212820294B984701212820284B984777
S1130D0001235B4219002820264B984701213020FB
S1130D10224B984701213020214B984701235B4205
S1130D20190030201F4B9847002131201E4B984753
S1130D3002213120194B984701235B4219003120CD
S1130D40184B984701213E20144B984701213E201F
S1130D50134B984701235B4219003E20114B9847DF
S1130D6001213F200D4B984701213F200C4B984710
S1130D7001235B4219003F200A4B98470B4B9847CD
S1130D800B4B98470B4B98470B4B98470B4B98478B
S1130D90C046BD4680BDC04689090000090900005F
S1130DA0A9080000E508000049090000F509000051
S1130DB0890A0000E10A0000750B0000050C000020
S1130DC080B584B000AFF860B9607A60FB68002B2E
S1130DD004D0BB68002B01D0012300E000231A1CBF
S1130DE001231340DBB2084939221800074B984706
S1130DF0FB68BA6811001800054B984703001800F7
S1130E00BD4604B080BDC046F8830000FD1A000052
S1130E100522000080B582B000AF78600A00FB1C98
S1130E201A707B685A1E9341DBB208494E2218009F
S1130E30074B98477A68FB1C1B7819001000054B78
S1130E40984700231800BD4602B080BDF883000017
S1130E50FD1A00005922000080B582B000AF78600E
S1130E600A00FB1C1A707B685A1E9341DBB20849C6
S1130E7059221800074B98477A68FB1C1B78190005
S1130E801000054B984700231800BD4602B080BDF2
S1130E90F8830000FD1A00007D22000090B587B0A1
S1130EA000AFF86008007A6019000B23FB18021CDD
S1130EB01A700823FB180A1C1A801623FB18002238
S1130EC01A80FB68002B09D07B68002B06D008230E
S1130ED0FB181B88002B01D0012300E000231A1CFF
S1130EE001231340DBB23A4967221800394B984773
S1130EF0FB681522BC181800374B98470300237071
S1130F000823FB181A881523FB181978334B100093
S1130F1098470B005A425341DBB22D49692218000D
S1130F202C4B9847FB6818002D4B9847C046FA682D
S1130F300B23FB181B78190010002A4B9847030059
S1130F401A0001235340DBB2002BF0D1FA681223BC
S1130F50FC180B23FB181B7819001000224B984730
S1130F60030023801623FB181B887A68D3181222E7
S1130F70BA181288D2B21A701523FB181B78012BE9
S1130F800CD91623FB181B8801337A68D318122254
S1130F90BA181288120A92B2D2B21A701523FB1828
S1130FA01B7899B21623FB181622BA1812888A18CD
S1130FB01A801623FA180823FB1812881B889A42F1
S1130FC0B0D31623FB181B881800BD4607B090BD8C
S1130FD0F8830000FD1A0000A1220000D1240000C3
S1130FE0F5220000CD2200001523000080B584B056
S1130FF000AF7860EFF31083FB60FA687B681A60D7
S113100072B6BFF35F8FC046BD4604B080BD80B5E5
S113101084B000AF7860BFF35F8F7B681B68FB60B0
S1131020FB6883F31088C046BD4604B080BD80B51C
S113103082B000AF0200BB1D1A80BB1D1B880322B7
S1131040134001D0002300E001231800BD4602B084
S113105080BD000080B584B000AF78600A00FB1C3E
S11310601A700023FB607B689BB21800174B9847EB
S1131070031E11D0FB1C1B780C2B1FD89A00144B99
S1131080D3181B689F46134BFB601AE0124BFB609E
S113109017E0124BFB6014E0FB1C1B780C2B0FD8E1
S11310A09A000F4BD3181B689F460A4BFB6008E05D
S11310B00C4BFB6005E0094BFB6002E0C04600E01E
S11310C0C046FB681800BD4604B080BD2F10000068
S11310D01484000080DE2800803B2600008D270059
S11310E04884000000EA240080B588B000AF78602E
S11310F039604B4BBB611723FB1801221A7016236E
S1131100FB1801221A701523FB1800221A701423ED
S1131110FB1800221A707B68FB61BB699BB2180044
S1131120404B9847031E01D03F4B00E03F4B3B61CF
S1131130FA693B699A4207D3FA693B69D31AFB619E
S1131140BB690133BB61E8E71723FB181A78BB6955
S113115011001800364B98470300FB60FA69FB68DE
S11311609A420BD3FA69FB68D31AFB611723FB1865
S11311701A781723FB1801321A70E5E7FB692D4A28
S113118093420CD9FB692C4A94466344FB611623B1
S1131190FB181A781623FB1801321A70EEE7FB6964
S11311A0264A93420CD9FB69254A94466344FB6161
S11311B01523FB181A781523FB1801321A70EEE771
S11311C0FB693B2B0AD9FB693C3BFB611423FB18ED
S11311D01A781423FB1801321A70F1E7C046BB6970
S11311E09AB23B68DA803B681722BA1812785A71AF
S11311F03B681622BA1812781A713B681522BA187D
S113120012789A703B681422BA1812785A70FB69E3
S1131210DAB23B681A7000231800BD4608B080BDDE
S1131220B20700002F1000000085E2018033E101C5
S1131230551000007F51010080AEFEFF0F0E00002C
S1131240F0F1FFFF80B586B000AF786000237B61CA
S113125000233B617B68DB88DAB20F23FB184E3234
S11312601A700E23FB187A6852791A700D23FB1832
S11312707A6812791A700C23FB187A6892781A70BB
S11312800B23FB187A6852781A700A23FB187A68C1
S113129012781A7000233B6118E03B699BB2304A14
S11312A0944663449BB218002E4B9847031E05D006
S11312B07B692D4A944663447B6104E07B692B4A35
S11312C0944663447B613B6901333B610F23FB1804
S11312D01A783B699A42E0D801233B610FE07B68AE
S11312E0DB881A003B69DBB219001000204B9847D9
S11312F002007B699B187B613B6901333B610E23D0
S1131300FB181A783B699A42E9D80D23FB181B781D
S1131310013B184A53431A007B699B187B610C23D9
S1131320FB181B78E122120153431A007B699B18B6
S11313307B610B23FB181A7813001B019B1A9B007B
S11313401A007B699B187B610A23FB181B787A6956
S1131350D3187B617B691800BD4606B080BDC046CA
S1131360B20700002F1000000085E2018033E10184
S1131370551000008051010080B584B000AF786042
S113138039603B68DB68BB607B68DB68FB607B685B
S11313901B7C052B4AD89A002D4BD3181B689F46FB
S11313A0FA68BB689A4243D8FB683C33FB603FE071
S11313B0FA68BB689A423DD8FB68E1221201944660
S11313C06344FB6036E0FA68BB689A4234D8FB6831
S11313D0204A94466344FB602EE0FA68BB689A4254
S11313E02CD83B685B891A003B685B7A19001000B3
S11313F0194B98470200FB689B18FB601EE0FA68D3
S1131400BB689A421CD83B685B891800134B984709
S1131410031E05D0FB68124A94466344FB600FE048
S1131420FB68104A94466344FB6009E0C04608E048
S1131430C04606E0C04604E0C04602E0C04600E004
S1131440C0467B68FA68DA60C046BD4604B080BD19
S11314507C84000080510100551000002F10000012
S11314600085E2018033E10180B58AB000AF786085
S113147039607B681800434B984703007B6208235C
S1131480FB181A1D7B6A110018003F4B984708236C
S1131490FB187A6ADA603B681B7C062B54D89A00E6
S11314A03A4BD3181B689F460823FB185A893B689C
S11314B05A810823FB185A7A3B685A720823FB188E
S11314C01A7A3B681A720823FB189A793B689A7156
S11314D00823FB185A793B685A7136E00823FB1835
S11314E05A893B685A810823FB185A7A3B685A7216
S11314F00823FB181A7A3B681A720823FB189A7996
S11315003B689A7121E00823FB185A893B685A8189
S11315100823FB185A7A3B685A720823FB181A7A74
S11315203B681A7211E00823FB185A893B685A81F8
S11315300823FB185A7A3B685A7206E00823FB1802
S11315405A893B685A8100E0C0463B68043318005E
S11315500F4B984703003B623B683A6ADA60082302
S1131560FA183B68110018000A4B98473B68DA6880
S11315703B68043319001000034B9847C046BD462E
S11315800AB080BDC92A0000E9100000948400005C
S1131590451200007913000080B584B000AF786074
S11315A039600023FB607B685A1E9341D8B2C42380
S11315B0FF331A00114B1900114B98477B68143301
S11315C0002118000F4B98470300FB60FB68002BB9
S11315D001DAFB680EE07B683A681A607B681800E1
S11315E0094B98477B681800084B98477B68002292
S11315F01A6100231800BD4604B080BDB084000009
S1131600FD1A0000E1450000D9290000792A0000F4
S113161080B584B000AFF860B960BB1D1A80FB6868
S1131620002B04D0BB68002B01D0012300E0002371
S11316301A1C01231340DBB2084934221800084B5A
S11316409847FB681B68BA1D1288B968F868984700
S113165003001800BD4604B080BDC046D08400001D
S1131660FD1A000080B584B000AFF860B960BB1DFE
S11316701A80FB68002B04D0BB68002B01D0012327
S113168000E000231A1C01231340DBB208493D2269
S11316901800084B9847FB685B68BA1D1288B96844
S11316A0F868984703001800BD4604B080BDC046E2
S11316B0D0840000FD1A000080B584B000AFF8604B
S11316C0B9607A60FB68002B04D0BB68002B01D0A2
S11316D0012300E000231A1C01231340DBB20B4951
S11316E0332218000A4B9847FB68BA6811001800A7
S11316F0084B9847FB68084A1A60FB68074A5A6017
S113170000231800BD4604B080BDC046E484000038
S1131710FD1A000061340000091800002F180000B1
S113172080B582B000AF78607B685A1E9341DBB20B
S11317300B494A2218000B4B98477B6818000A4B48
S11317409847031E02D011235B4204E07B68180013
S1131750064B984700231800BD4602B080BDC04622
S1131760E4840000FD1A000025380000C93600009A
S113177080B582B000AF78607B685A1E9341DBB2BB
S11317800D49582218000D4B98477B6818000C4BE4
S1131790984703001A0001235340DBB2002B02D008
S11317A011235B4204E07B681800064B9847002332
S11317B01800BD4602B080BDE4840000FD1A00009C
S11317C025380000E936000080B584B000AFF86029
S11317D0B9607A60FB685A1E9341DBB207497C22E8
S11317E01800074B9847FB687A68B9681800054BDE
S11317F0984700231800BD4604B080BDE48400006F
S1131800FD1A00000937000080B584B000AF78608D
S11318107B68FB60FB685B69002B04D0FB685B6939
S1131820FA6810009847C046BD4604B080BD80B534
S113183084B000AF78607B68FB60FB689B69002B19
S113184004D0FB689B69FA6810009847C046BD46FF
S113185004B080BD80B586B000AFF860B9607A602E
S1131860FB68002B04D0BB68002B01D0012300E0EF
S113187000231A1C01231340DBB20F493422180041
S11318800E4B9847FB680833BA68110018000C4BDC
S1131890984703007B617B69002B01D07B6906E0DC
S11318A0FB68084A5A60FB68074A1A60002318005C
S11318B0BD4606B080BDC046FC840000FD1A000091
S11318C08D2D0000611A00008D19000080B582B0D2
S11318D000AF78607B685A1E9341DBB207495322FC
S11318E01800074B98477B6808331800054B984746
S11318F000231800BD4602B080BDC046FC84000031
S1131900FD1A0000CD2D000080B582B000AF7860D4
S113191039607B68002B04D03B68002B01D0012385
S113192000E000231A1C01231340DBB2064969229C
S11319301800064B98477A683B681A600023180021
S1131940BD4602B080BDC046FC840000FD1A000004
S113195080B582B000AF78607B685A1E9341DBB2D9
S11319600749D7221800074B98477B6808331800AB
S1131970054B984703001800BD4602B080BDC04621
S1131980FC840000FD1A00007D2E000080B586B0A6
S113199000AFF860B960BB1D1A8000237B61FB684F
S11319A03B61FB68002B08D0BB68002B05D0BB1D36
S11319B01B88002B01D0012300E000231A1C012303
S11319C01340DBB22149F1221800214B9847C0464D
S11319D03B69083318001F4B984703001A00012382
S11319E05340DBB2002BF3D13B6908331800BA68CB
S11319F07B69D3181B781900174B9847C0463B697D
S1131A0008331800134B984703001A00012353406E
S1131A10DBB2002BF3D17B6901337B61BB1D1B88D7
S1131A207A699A42E0D3C0463B69083318000B4BED
S1131A30984703001A0001235340DBB2002BF3D173
S1131A407B691800BD4606B080BDC046FC8400001A
S1131A50FD1A00003D2E0000ED2D00005D2E00005B
S1131A6090B587B000AFF860B960BB1D1A80002341
S1131A707B61FB683B61FB68002B08D0BB68002BD3
S1131A8005D0BB1D1B88002B01D0012300E00023DF
S1131A901A1C01231340D8B286235A00134B190091
S1131AA0134B9847C0463B6908331800114B9847BD
S1131AB003001A0001235340DBB2002BF3D1BA68B0
S1131AC07B69D4183B69083318000B4B9847030013
S1131AD023707B6901337B61BB1D1B887A699A4241
S1131AE0E0D37B691800BD4607B090BDFC840000BC
S1131AF0FD1A00007D2E0000192E000080B584B070
S1131B0000AFB9607A600F23FB18021C1A700F2310
S1131B10FB181B7801225340DBB2002B00D000BE1F
S1131B20C046BD4604B080BD80B582B000AF7860C9
S1131B300A00BB1C1A80C0467B681B8C9BB2BA1C73
S1131B40128813409BB2002BF6D1C046BD4602B0AA
S1131B5080BD80B582B000AF78600A00BB1C1A80DB
S1131B607B681B8C9BB2BA1C128813409BB25A1E12
S1131B709341DBB21800BD4602B080BD80B582B08F
S1131B8000AF78607B689B79DBB21A0001231340B5
S1131B905A1E9341DBB21800BD4602B080BD80B529
S1131BA082B000AF78607B689B8C9BB21800BD4606
S1131BB002B080BD80B582B000AF78607B681B78CE
S1131BC0DBB202221343DAB27B681A707B6803210A
S1131BD01800034B9847C046BD4602B080BDC046BE
S1131BE0291B000080B582B000AF78607B681B7849
S1131BF0DBB202229343DAB27B681A707B6803215A
S1131C001800034B9847C046BD4602B080BDC0468D
S1131C10291B000080B584B000AF78600A00FB1C6B
S1131C201A707B68032118000B4B98470F23FB188D
S1131C307A6812781A700F23FB180F22BA18F91C4D
S1131C40127809780A401A700F23FB181B781800C1
S1131C50BD4604B080BDC046291B000080B582B0DB
S1131C6000AF78600A00FB1C1A707B68FA1C1278BB
S1131C701A707B6803211800024B9847C046BD4682
S1131C8002B080BD291B000080B582B000AF78602F
S1131C900A00FB1C1A707B68FA1C12785A70C04642
S1131CA0BD4602B080BD80B582B000AF78600A0046
S1131CB0FB1C1A707B68FA1C12789A70C046BD46E9
S1131CC002B080BD80B582B000AF78600A00FB1C12
S1131CD01A707B68FA1C1278DA70C046BD4602B0EE
S1131CE080BD000080B582B000AF78600A00BB1CE4
S1131CF01A807B68BA1C12881A81054A7B68110015
S1131D001800044B9847C046BD4602B080BDC0468B
S1131D10FF070000291B000080B584B000AF786085
S1131D200E23FB187A6852891A800E23FB181B882D
S1131D301B099AB20E23FB1803210A401A800E23B2
S1131D40FB181B881800BD4604B080BD80B582B066
S1131D5000AF78600A00BB1C1A807B68BA1C12882A
S1131D605A81054A7B6811001800044B9847C04605
S1131D70BD4602B080BDC046FF070000291B00001D
S1131D8080B582B000AF78600A00FB1C1A707B68D3
S1131D90FA1C12781A73054A7B6811001800044B68
S1131DA09847C046BD4602B080BDC046FF0700004C
S1131DB0291B000080B582B000AF78600A00FB1CCC
S1131DC01A707B68FA1C12785A73054A7B681100F2
S1131DD01800044B9847C046BD4602B080BDC046BB
S1131DE0FF070000291B000080B582B000AF7860B7
S1131DF00A00BB1C1A807B68BA1C1288DA817B68D3
S1131E0040211800024B9847C046BD4602B080BD31
S1131E10291B000080B582B000AF78600A00BB1CAB
S1131E201A807B68BA1C12881A827B688021180089
S1131E30024B9847C046BD4602B080BD291B000036
S1131E4080B582B000AF78600A00BB1C1A807B6842
S1131E50BA1C12885A8280235A007B681100180029
S1131E60024B9847C046BD4602B080BD291B000006
S1131E7080B582B000AF78600A00BB1C1A807B6812
S1131E80BA1C12889A8280239A007B681100180079
S1131E90024B9847C046BD4602B080BD291B0000D6
S1131EA080B582B000AF78607B681B7EDBB2022213
S1131EB01343DAB27B681A76044A7B68110018006F
S1131EC0034B9847C046BD4602B080BDFF070000E3
S1131ED0291B000080B582B000AF78600A00FB1CAB
S1131EE01A707B68FA1C12781A77C046BD4602B095
S1131EF080BD80B582B000AF786039607B683A6895
S1131F009A62C046BD4602B080BD000080B582B072
S1131F1000AF78607B68044A944663449B0ADBB252
S1131F201800BD4602B080BD00BCFFBD90B585B0B1
S1131F3000AF78607B680E22BC181800184B9847D5
S1131F40030023700F23FB1800221A7018E00F23DC
S1131F50FB181A7813491300DB009B1A9B005B5C87
S1131F600E22BA1812789A4203D10F23FB181B7859
S1131F7012E00F23FB181A780F23FB1801321A7092
S1131F800F23FB181B78012BE1D9074B8D22190075
S1131F900020064B984700231800BD4605B090BDAD
S1131FA00D1F00001885000050850000FD1A000078
S1131FB080B582B000AF78600A00FB1C1A707B68A1
S1131FC0012118007C4B984703001A000123534059
S1131FD0DBB2002B14D07B6802211800774B9847A2
S1131FE0031E08D07B681800754B98477B68022154
S1131FF01800744B98477B6801211800724B98476E
S11320007B68012118006F4B9847FB1C1A786F49B5
S11320101300DB009B1A9B00CB1802331A787B68F1
S1132020110018006A4B9847FB1C1A786749130083
S1132030DB009B1A9B00CB1803331A787B681100D2
S11320401800644B9847FB1C1A7860491300DB00A6
S11320509B1A9B00CB1804331A787B681100180074
S11320605D4B9847FB1C1A7858491300DB009B1AF8
S11320709B00CB1806331A887B6811001800574B55
S11320809847FB1C1A7851491300DB009B1A9B00EC
S1132090CB1808331A887B6811001800504B9847F6
S11320A0FB1C1A7849491300DB009B1A9B00CB18D0
S11320B00A331A787B68110018004A4B9847FB1CB6
S11320C01A7842491300DB009B1A9B00CB180B3390
S11320D01A787B6811001800434B9847FB1C1A7848
S11320E03A491300DB009B1A9B00CB180C331A8867
S11320F07B68110018003D4B9847FB1C1A78334944
S11321001300DB009B1A9B00CB180E331A887B68E4
S113211011001800364B9847FB1C1A782B49130002
S1132120DB009B1A9B00CB1810331A887B681100C4
S11321301800304B9847FB1C1A7824491300DB0025
S11321409B1A9B00CB1812331A887B681100180065
S1132150294B9847FB1C1A781C491300DB009B1A77
S11321609B00CB1814331A787B6811001800234B9A
S11321709847FB1C1A7815491300DB009B1A9B0037
S1132180CB1818331A687B68110018001C4B984749
S1132190FB1C1A780D491300DB009B1A9B00CB181B
S11321A001331A787B6811001800074B9847002305
S11321B01800BD4602B080BD531B0000151C000072
S11321C0E51B0000291B00005D1C000018850000B1
S11321D0891C0000A71C0000C51C0000E51C0000B1
S11321E04D1D0000811D0000B51D0000E91D00000B
S11321F0151E0000411E0000711E0000D51E0000C7
S1132200F31E000080B582B000AF786039607B684F
S11322105A1E9341DBB20C49D42218000B4B984749
S11322207B683A681A603B681800094B98470300BA
S11322301A003B6811001800064B98470300180069
S1132240BD4602B080BDC04650850000FD1A0000A6
S11322502D1F0000B11F000080B582B000AF786070
S11322600A00FB1C1A707B681B681800024B984715
S1132270C046BD4602B080BDB51B000080B582B02B
S113228000AF78600A00FB1C1A707B681B6818009A
S1132290024B9847C046BD4602B080BDE51B000016
S11322A080B582B000AF78607B681B681800064B6D
S11322B098470300032B01D1012300E002231800F7
S11322C0BD4602B080BDC046191D000080B582B075
S11322D000AF78600A00FB1C1A707B681B6818004A
S11322E0034B984703001800BD4602B080BDC046AA
S11322F07D1B000080B582B000AF78607B681B68EE
S11323001800034B9847C046BD4602B080BDC04686
S1132310A11E000080B582B000AF78600A00FB1CEB
S11323201A707B681B681800034B98470300180059
S1132330BD4602B080BDC0469F1B000080B500AF03
S113234000231800BD4680BD80B582B000AF786020
S113235039607B685A683B685B001E210B401A4356
S11323607B685A60C046BD4602B080BD80B500AFF0
S11323700A4B002118000A4B98470A4B98470A4B0E
S113238098470A4B98470A4B9847FF20094B9847B0
S1132390094B9847C046BD4680BDC0460040004139
S11323A049230000A9260000ED2700003126000083
S11323B069280000C92500007124000080B584B09C
S11323C000AF78600A00FB1C1A700F23FB187A68B0
S11323D012781A700F23FB180F22BA1812780221F0
S11323E08A431A70FB1C1B785B005AB20F23FB183C
S11323F01B785BB213435AB20F23FB181A707B6825
S11324000F22BA1812781A70C046BD4604B080BDB7
S113241080B584B000AFB9607A600F23FB18021C4A
S11324201A709023DA050F23FB181B7801210B4047
S1132430D9B213780120084001218B43191C031CD5
S11324400B4313709023DB05BA689A609023DB0575
S11324507A68DA60C0469023DB051B79DB07DB0F63
S1132460DBB2002BF7D1C046BD4604B080BD0000EE
S113247080B500AF9023DB0500211800024B98477C
S1132480C046BD4680BDC046BD23000080B586B0B1
S113249000AF78603960EFF31083FB60FB68BB60CA
S11324A072B63A687B6819000020084B984790235D
S11324B0DB051B697B61BB683B613B6983F3108867
S11324C07B691800BD4606B080BDC04611240000DB
S11324D090B589B000AF78603960EFF310833B6149
S11324E03B69FB6072B67B683A6819000120094BAE
S11324F09847094B5C681B68BB61FC61FB687B61A6
S11325007B6983F31088BB69FC6918002100BD4610
S113251009B090BD112400001000004890B589B0A6
S113252000AF78603960EFF310833B613B69FB6077
S113253072B63A687B6819000020094B9847094B2A
S11325405C681B68BB61FC61FB687B617B6983F32E
S11325501088BB69FC6918002100BD4609B090BD14
S1132560112400001000004880B582B000AF7860EC
S11325703960C0467B685B683A681340FAD1C0464C
S1132580BD4602B080BD000080B584B000AFF860E5
S11325907A600B23FB180A1C1A700B23FB181A7899
S11325A0FB68083292007968D150054AFB68110033
S11325B01800044B9847C046BD4604B080BDC046D1
S11325C0FD0700006925000080B582B000AF786087
S11325D07B680122134005D0094A0A4B00211800E8
S11325E0094B98477B680422134005D0074A054BE2
S11325F002211800044B9847C046BD4602B080BD76
S113260006010100001C00408925000003010100AF
S113261080B582B000AF78600A00FB1C1A707B683A
S1132620FA1C12781A71C046BD4602B080BD000083
S113263080B582B000AF054B7B607B680121180038
S1132640034B9847C046BD4602B080BD0008004019
S11326501126000080B582B000AF786039607B68D5
S11326603A681A61C046BD4602B080BD80B584B0E8
S113267000AF78607B68DB69FB60FB681B0A1F2284
S11326801340FB60FB681800BD4604B080BD80B5F4
S113269082B000AF786039607B683A68DA61C0461E
S11326A0BD4602B080BD000080B582B000AF104BC3
S11326B07B60BB1C00221A807B6818000D4B984776
S11326C00200BB1C1A80BB1C1B881B021A00F823C7
S11326D05B011A407B6811001800074B98477B6820
S11326E000211800054B9847C046BD4602B080BD86
S11326F0001400406D2600008F26000055260000BF
S113270080B582B000AF78603960C0467B689B6951
S11327103A681340FAD1C046BD4602B080BD80B5C8
S113272082B000AF78607B68DB681B09012213402C
S11327305A1E9341DBB21800BD4602B080BD80B57D
S113274082B000AF78607B689B699B0801221340CC
S11327505A1E9341DBB21800BD4602B080BD80B55D
S113276082B000AF78607B681B7DDBB2802252426E
S11327701343DAB27B681A75C046BD4602B080BD09
S113278080B582B000AF78600A00FB1C1A707B68C9
S1132790FA1C12781A75C046BD4602B080BD00000E
S11327A080B582B000AF78600A00FB1C1A707B68A9
S11327B0FA1C12785A757B6804211800024B98475A
S11327C0C046BD4602B080BD0127000080B582B07E
S11327D000AF78600A00FB1C1A707B68FA1C127840
S11327E09A75C046BD4602B080BD000080B582B077
S11327F000AF164B7B607B6802211800144B98478E
S11328007B680B211800134B9847C0467B6818005F
S1132810114B9847031EF9D17B68072118000F4B11
S11328209847C0467B6818000D4B984703001A0070
S113283001235340DBB2002BF4D17B681800094B11
S11328409847C046BD4602B080BDC0460010004057
S113285081270000A12700003F270000CD270000AA
S11328601F2700005F27000080B582B000AF034B34
S11328707B60C046BD4602B080BDC046001000402B
S113288080B582B000AF78603960C0467B681B6950
S11328903A681340FAD1C046BD4602B080BD80B547
S11328A082B000AF78607B68802252009A81C04673
S11328B0BD4602B080BD80B582B000AF78607B6851
S11328C09B899BB21800BD4602B080BD80B582B022
S11328D000AF78607B681B889BB2012213439AB2D5
S11328E07B681A807B6801211800034B9847C04617
S11328F0BD4602B080BDC0468128000080B582B0CC
S113290000AF78607B681B889BB2022213439AB2A3
S11329107B681A80044A7B6811001800034B9847AF
S1132920C046BD4602B080BD03800000812800007F
S113293080B584B000AF78600F4A7B68110018003E
S11329400E4B98470E23FB187A6812881A800E23C0
S1132950FB181B885B089AB20E23FB1801210A405E
S11329601A800E23FB181B885A1E9341DBB21800F1
S1132970BD4604B080BDC04603800000812800002D
S113298080B582B000AF78600A00BB1C1A807B68F7
S1132990BA1C12881A80054A7B6811001800044B7F
S11329A09847C046BD4602B080BDC04603800000C3
S11329B08128000080B582B000AF78607B68082170
S11329C01800044B98477B689B691800BD4602B009
S11329D080BDC0468128000080B582B000AF786019
S11329E07B68002B05D07B681B68002B01D001237A
S11329F000E000231A1C01231340DBB217492F22E5
S1132A001800174B9847174B7A681A607B681B6845
S1132A1001211800144B98477B681B681800134B5E
S1132A209847031E02D011235B4213E07B681B68A6
S1132A3018000F4B98477B681B68012118000A4B4C
S1132A4098477B681A688B231B0219001000094BF6
S1132A50984700231800BD4602B080BD6885000079
S1132A60FD1A0000480000208128000031290000E0
S1132A70CD2800008129000080B582B000AF7860C5
S1132A807B68002B05D07B681B68002B01D00123D9
S1132A9000E000231A1C01231340DBB20749632220
S1132AA01800074B98477B681B681800054B98472C
S1132AB000231800BD4602B080BDC04668850000F2
S1132AC0FD1A0000FD28000080B582B000AF7860D8
S1132AD07B68002B05D07B681B68002B01D0012389
S1132AE000E000231A1C01231340DBB207498722AC
S1132AF01800074B98477B681B681800054B9847DC
S1132B0003001800BD4602B080BDC04668850000C1
S1132B10FD1A0000B529000090B585B000AF7860BB
S1132B207B681B680E22BC1818000C4B98470300E6
S1132B3023800E23FB181A8880235B00134009D0DE
S1132B407B685B687A68100098477B681B6818008C
S1132B50034B9847C046BD4605B090BDB72800005A
S1132B609F28000080B500AF034B1B681800034B7F
S1132B709847C046BD4680BD48000020192B000080
S1132B8080B582B000AF78603960C0467B68DB698D
S1132B903A681340FAD1C046BD4602B080BD80B544
S1132BA082B000AF786039607B68DB693A681340B3
S1132BB05A1E9341DBB21800BD4602B080BD80B5F9
S1132BC082B000AF78607B681B7EDBB21A00012301
S1132BD013405A1E9341DBB21800BD4602B080BDBB
S1132BE080B582B000AF78607B681B7EDBB25B0887
S1132BF0012213405A1E9341DBB21800BD4602B0B5
S1132C0080BD80B582B000AF78607B681B7EDBB28C
S1132C109B08012213405A1E9341DBB21800BD46A3
S1132C2002B080BD80B582B000AF78607B681B685D
S1132C3002221A437B681A607B6803211800034B45
S1132C409847C046BD4602B080BDC046812B0000F7
S1132C5080B582B000AF78607B681B680222934322
S1132C601A007B681A607B6803211800024B98479E
S1132C70C046BD4602B080BD812B000080B584B043
S1132C8000AF786039607B6803211800064B9847D1
S1132C907B681B68FB60FB683A681340FB60FB6859
S1132CA01800BD4604B080BD812B000080B582B001
S1132CB000AF786039607B683A681A607B680321EA
S1132CC01800034B9847C046BD4602B080BDC046BD
S1132CD0812B000080B582B000AF786039607B68DA
S1132CE03A685A607B6807211800034B9847C0462E
S1132CF0BD4602B080BDC046812B000080B582B0C5
S1132D0000AF78600A00BB1C1A807B68BA1C12886A
S1132D109A81C046BD4602B080BD80B582B000AF86
S1132D2078600A00FB1C1A707B68FA1C12789A738C
S1132D30C046BD4602B080BD80B582B000AF7860A9
S1132D400A00BB1C1A807B68BA1C12881A85C0460C
S1132D50BD4602B080BD80B582B000AF78607B68AC
S1132D601B8D9BB21800BD4602B080BD80B582B0F9
S1132D7000AF78600A00FB1C1A707B68FA1C3021D3
S1132D8012785A54C046BD4602B080BD80B582B0A8
S1132D9000AF786039607B685A1E9341DBB2084902
S1132DA0B4221800074B98477B683A681A603B685E
S1132DB01800054B984703001800BD4602B080BDBB
S1132DC080850000FD1A0000452F000080B582B008
S1132DD000AF78607B681B681800034B9847C046B7
S1132DE0BD4602B080BDC046252C000080B582B02F
S1132DF000AF78600A00FB1C1A707B681A68FB1C21
S1132E001B789BB219001000024B9847C046BD4680
S1132E1002B080BD392D000080B582B000AF78606B
S1132E207B681B681800044B98470300DBB218004A
S1132E30BD4602B080BDC046572D000080B582B0AB
S1132E4000AF78607B681B681800034B9847030049
S1132E501800BD4602B080BDBF2B000080B582B013
S1132E6000AF78607B681B681800034B9847030029
S1132E701800BD4602B080BDE12B000080B582B0D1
S1132E8000AF78607B681B681800034B9847030009
S1132E901800BD4602B080BD032C000080B582B08E
S1132EA000AF78607B68044A944663449B0ADBB2B3
S1132EB01800BD4602B080BD00FCFFBD90B585B0D2
S1132EC000AF78600E23FC187B681800184B9847F5
S1132ED0030023700F23FB1800221A7018E00F233D
S1132EE0FB181A78134913009B009B189B005B5C2A
S1132EF00E22BA1812789A4203D10F23FB181B78BA
S1132F0012E00F23FB181A780F23FB1801321A70F2
S1132F100F23FB181B78002BE1D0074A074B19003D
S1132F200020074B984700231800BD4605B090BD0C
S1132F309D2E0000000000203A0200008085000061
S1132F40FD1A000090B585B000AF78600F23FC181F
S1132F507B6818006F4B9847030023707B6801213E
S1132F6018006D4B984703001A0001235340DBB24D
S1132F70002B25D00F23FB181A78684913009B00F7
S1132F809B189B00CB1804331B681C221340BB60A6
S1132F907B6802211800624B9847031E08D07B68A7
S1132FA01800604B98477B68022118005E4B9847D5
S1132FB0BB6801221A437B68110018005B4B9847D9
S1132FC07B6801211800584B98470F23FB181A7887
S1132FD0524913009B009B189B00CB1804331A68BA
S1132FE07B6811001800514B98470F23FB181A787F
S1132FF04A4913009B009B189B00CB1808331A689E
S11330007B68110018004A4B98470F23FB181A7865
S1133010424913009B009B189B00CB1804331A6889
S113302080239B0113400ED10F23FB181A783B49D0
S113303013009B009B189B00CB1804331A68C02311
S1133040DB01134030D00F23FB181A7833491300E7
S11330509B009B189B00CB180C331B88DB04DB0CF8
S113306099B27A689389C904C80C5B0B5B03191C79
S1133070031C0B4393810F23FB181A782749130071
S11330809B009B189B00CB180E331B781A1C07233C
S11330901340D9B27A6893894803DB04DB0C191C0A
S11330A0031C0B4393810FE00F23FB181A781B4971
S11330B013009B009B189B00CB180C331A887B6869
S11330C0110018001B4B98470F23FB181A7813495B
S11330D013009B009B189B00CB180F331A787B6856
S11330E011001800144B98470F23FB181A780B494A
S11330F013009B009B189B00CB1810331A787B6835
S1133100110018000D4B984700231800BD4605B068
S113311090BDC046BD2E00009F2B00000000002083
S11331207D2C0000512C0000812B0000AD2C0000F0
S1133130D52C0000FD2C00001B2D00006D2D00007F
S113314080B582B000AF0200FB1D1A70FB1D1B7816
S11331507F2B09D8064BFA1D127811001F220A4052
S1133160012191400A001A60C046BD4602B080BDEC
S113317000E100E080B582B000AF0200FB1D1A70D0
S1133180FB1D1B787F2B0ED80949FB1D1B781A00E9
S11331901F23134001229A40130080228B50BFF357
S11331A04F8FBFF36F8FC046BD4602B080BDC0468F
S11331B000E100E080B582B000AF0200FB1D1A7090
S11331C0FB1D1B787F2B0AD80749FB1D1B781A00AF
S11331D01F23134001229A40C0235B00CA50C046FB
S11331E0BD4602B080BDC04600E100E080B582B0BB
S11331F000AF78603960C0467B681B693A68134049
S1133200FAD1C046BD4602B080BD80B582B000AFE1
S1133210786039607B681B693A6813405A1E934191
S1133220DBB21800BD4602B080BD80B582B000AFED
S113323078607B689B7ADBB21A00012313405A1E24
S11332409341DBB21800BD4602B080BD80B582B0A8
S113325000AF78607B6801229A72C046BD4602B016
S113326080BD80B582B000AF78607B6802229A721C
S1133270C046BD4602B080BD80B582B000AF786064
S11332807B685B7ADBB25B08012213405A1E9341D0
S1133290DBB21800BD4602B080BD000080B582B02C
S11332A000AF78607B681B6802221A437B681A604F
S11332B07B6803211800034B9847C046BD4602B003
S11332C080BDC046ED31000080B584B000AF7860A9
S11332D07B6803211800094B98477B681B68FB60D7
S11332E0FB685B0801221340FB60FB685A1E934194
S11332F0DBB21800BD4604B080BDC046ED3100000D
S113330080B582B000AF78607B681B68022293436B
S11333101A007B681A607B6803211800024B9847E7
S1133320C046BD4602B080BDED31000080B584B01A
S113333000AF786039607B6803211800064B98471A
S11333407B681B68FB60FB683A681340FB60FB68A2
S11333501800BD4604B080BDED31000080B582B0D8
S113336000AF786039607B683A681A607B68032133
S11333701800034B9847C046BD4602B080BDC04606
S1133380ED31000080B582B000AF78600A00BB1C4C
S11333901A807B68BA1C1288DA80C046BD4602B027
S11333A080BD80B582B000AF78600A00FB1C1A7043
S11333B07B68FA1C12781A73C046BD4602B080BD01
S11333C080B582B000AF78600A00FB1C1A707B687D
S11333D0FA1C1278DA73C046BD4602B080BD000004
S11333E080B582B000AF786008001100FB1C021C9D
S11333F01A703B000A1C1A80FB1C1B787A680C3379
S11334005B00D31804333A0012881A807B68C02109
S11334101800034B9847C046BD4602B080BDC04665
S1133420ED31000080B584B000AFF8607A600B2302
S1133430FB180A1C1A700B23FB181B78FA68063356
S11334409B00D31804337A681A60FB68C021180003
S1133450024B9847C046BD4604B080BDED31000024
S113346090B585B000AF786039600F23FC183B68D5
S11334701800854B9847030023707B683A681A61EB
S11334803B6801211800814B984703001A0001236F
S11334905340DBB2002B14D03B68022118007C4B54
S11334A09847031E08D03B6818007A4B98473B683E
S11334B002211800784B98473B6801211800774B8C
S11334C098473B6801211800734B98470F23FB185A
S11334D000229A56724913009B009B189B00CB183C
S11334E004331A683B68110018006C4B98470F238B
S11334F0FB1800229A566A4913009B009B189B00F4
S1133500CB180A331A783B6811001800654B9847AA
S11335100F23FB1800229A56614913009B009B1845
S11335209B00CB1808331A883B68110018005E4BC7
S113353098473B68032118005C4B98470F23FB18FE
S113354000229A56564913009B009B189B00CB18E7
S113355004331B680C221340082B22D10F23FB18C1
S113356000229A564E4913009B009B189B00CB18CF
S11335700C331A683B68002118004D4B98470F2301
S1133580FB1800229A56464913009B009B189B0087
S1133590CB1810331A683B6801211800444B984734
S11335A036E00F23FB1800229A563D4913009B0076
S11335B09B189B00CB1804331B680C22134024D1A6
S11335C00F23FB1800229A56354913009B009B18C1
S11335D09B00CB180C331B689AB23B68002118007F
S11335E0344B98470F23FB1800229A562C4913009A
S11335F09B009B189B00CB1810331B689AB23B6846
S1133600012118002B4B984702E001235B4236E06E
S11336107A683B6811001800274B98470F23FB1862
S113362000229A561E4913009B009B189B00CB183E
S113363001331B785BB21800204B98470F23FB180B
S113364000229A56164913009B009B189B00CB1826
S113365001331B785BB21800194B98470F23FB18F2
S113366000229A560E4913009B009B189B00CB180E
S113367001331B785BB21800124B984700231800E3
S1133680BD4605B090BDC046E13800000B320000D5
S11336902D33000001330000ED3100005D330000E4
S11336A014000020C133000085330000A333000060
S11336B025340000E13300006D390000753100004D
S11336C0B53100004131000080B582B000AF7860B0
S11336D07B681B691800034B9847C046BD4602B07F
S11336E080BDC0469D32000080B582B000AF7860D6
S11336F07B681B691800034B9847C046BD4602B05F
S113370080BDC0460133000090B587B000AFF860BB
S1133710B9607A60FB681B697B611323FC187B69C1
S113372018003C4B9847030023701323FB18002216
S11337309A56394913009B009B189B00CB180C33F5
S1133740BA681A601323FB1800229A5632491300F0
S11337509B009B189B00CB1810337A681A601323C4
S1133760FB1800229A562C4913009B009B189B00BF
S1133770CB1804331B680C221340082B22D11323CB
S1133780FB1800229A56244913009B009B189B00A7
S1133790CB180C331A687B69002118001F4B98471B
S11337A01323FB1800229A561B4913009B009B18F5
S11337B09B00CB1810331A687B6901211800174B42
S11337C0984723E01323FB1800229A56124913004A
S11337D09B009B189B00CB180C331B689AB27B6927
S11337E0002118000E4B98471323FB1800229A5609
S11337F0094913009B009B189B00CB1810331B68CE
S11338009AB27B6901211800054B9847C046BD4612
S113381007B090BDE13800001400002025340000FA
S1133820E133000080B582B000AF78607B681B692B
S11338301800034B984703001800BD4602B080BD32
S1133840C932000080B500AF00231800BD4680BD1A
S113385080B584B000AF78607B681B69FB60FB684F
S11338601800144B9847031E0CD0FB681800124B29
S113387098477B681B68002B04D07B681B687A68B8
S113388010009847FB6818000C4B9847031E0CD097
S1133890FB6818000A4B98477B685B68002B04D0D0
S11338A07B685B687A6810009847C046BD4604B0E0
S11338B080BDC0462B3200004D320000793200003A
S11338C06332000080B500AF034B1B681800034B44
S11338D09847C046BD4680BD4C00002051380000CA
S11338E090B585B000AF78600E23FC187B68180093
S11338F01A4B9847030023700F23FB1800221A70F9
S113390019E00F23FB181A78154913009B009B1824
S11339109B005B5C0E22BA1812789A4204D10F23E2
S1133920FB181B785BB214E00F23FB181A780F23E3
S1133930FB1801321A700F23FB181B78002BE0D000
S1133940A9235A00074B19000020074B984701236D
S11339505B421800BD4605B090BDC04695390000D5
S113396014000020B0850000FD1A000080B582B06C
S113397000AF786039607B68044A934202D1044BFB
S11339803A681A60C046BD4602B080BD00300042AD
S11339904C00002080B582B000AF78607B68074A95
S11339A0934201D1042305E07B68054A94466344AD
S11339B09B0ADBB21800BD4602B080BD0040004245
S11339C000D0FFBD80B500AF024B9847024B98472B
S11339D0FEE7C0461D010000AD3D000080B582B089
S11339E000AF78600A00FB1C1A70FB1C1A787B6815
S11339F0D201D3581800BD4602B080BD80B584B052
S1133A0000AFF8607A600B23FB180A1C1A700B23B2
S1133A10FB181B78FA68DB01D31818337A681A602C
S1133A20C046BD4604B080BD80B582B000AF7860AA
S1133A300A00FB1C1A70FB1C1B787A68DB01D31884
S1133A4010331B681800BD4602B080BD80B584B039
S1133A5000AFF8607A600B23FB180A1C1A700B2362
S1133A60FB181B78FA68DB01D31814337A681A60E0
S1133A70C046BD4604B080BD80B582B000AF78605A
S1133A800A00FB1C1A70FB1C1B787A68DB01D31834
S1133A9020331B681800BD4602B080BD80B582B0DB
S1133AA000AF39601100FB1D021C1A70BB1D0A1CFB
S1133AB01A70BB1D1B78002B08D03A68FB1D1978BF
S1133AC0C023DB051800074B984707E03A68FB1D45
S1133AD01978C023DB051800034B9847C046BD4640
S1133AE002B080BDFD3900004D3A000080B586B0BB
S1133AF000AF0200FB1D1A700C23FB181800184BB2
S1133B009847FB1D1A78C023DB0511001800154BDC
S1133B10984703007B61FB1D1A788223DB051100A3
S1133B201800114B984702007B69DB4313403B614B
S1133B30FB1D1A78C023DB05110018000B4B9847B6
S1133B4002007B6913403A6913433B610C23FB1861
S1133B501800074B98473B691800BD4606B080BD66
S1133B60ED0F0000DD390000793A0000293A000029
S1133B700F10000080B582B000AF0200FB1D1A7068
S1133B80BB1D0A1C1A70FB1D1B785B09D8B2FB1DF8
S1133B901B781F22134001229A401100BB1D1B7881
S1133BA01A00034B9847C046BD4602B080BDC046CC
S1133BB09D3A000080B582B000AF0200FB1D1A7070
S1133BC0FB1D1B785B09DBB21800094B9847010009
S1133BD0FB1D1B781F22134001229A4013000B4047
S1133BE05A1E9341DBB21800BD4602B080BDC046E8
S1133BF0ED3A000080B58AB000AF786000237B61A5
S1133C0000233B6100237B6200233B620023FB61B2
S1133C100123BB61574A584B11001800574B984772
S1133C20554B1800564B98477A6A3B6911001800A7
S1133C30544B9847544B98470300FB60FB68002B98
S1133C40F2D1524B73221A70504B31225A704F4B9F
S1133C5000229A7003204E4B98474E4B98474B4B8B
S1133C6073221A70494B32225A70484B00229A70C0
S1133C700320474B9847474B98473B6A002B00D19A
S1133C8073E0424B73221A70404B33225A703F4BFD
S1133C9000229A7003203E4B98473E4B984764E0BD
S1133CA0BB6918003C4B9847BB69012B0AD102E061
S1133CB064203A4B98471420394B98470300012B52
S1133CC0F6D00CE0BB69002B09D102E06420334B31
S1133CD098471520324B98470300012BF6D0022059
S1133CE02D4B9847294B73221A70284B34225A7053
S1133CF0264B00229A700320254B9847254B984762
S1133D00284B1B78312B08D1BB69002B02D101232E
S1133D10BB612AE00023BB6127E0224B1B78322BD6
S1133D2017D10123FB61BB69012B0FD10023BB61B8
S1133D30BB691800184B984702E06420174B98475A
S1133D401520174B98470300012BF6D0164B9847C4
S1133D500BE0144B1B78332B07D101233B62012367
S1133D607B620123BB61104B9847FB69002B97D002
S1133D705AE7C046F0270020A827002009190000B0
S1133D80CD180000F53D0000A13E00005828002099
S1133D90B5400000454100002942000025570000BD
S1133DA07D420000F42700206D40000090B583B0F0
S1133DB002AF0B4BDB68A02292000A490A48019328
S1133DC0012300930023094CA0470300012B00D0DA
S1133DD0FEE7074B9847C046BD4601B090BDC046BC
S1133DE050000020C4850000F53B00009D540000F5
S1133DF08157000080B584B000AF786039603B68BB
S1133E00002B0FD00023FB6007E0FA23DB0018002F
S1133E101C4B9847FB680133FB60FB681A4A9342CA
S1133E20F3DD2BE07B68002B0AD0C046174B984784
S1133E300300012BFAD0164B1800124B98471DE0D3
S1133E403020144B9847031E07D1C0463020114B35
S1133E509847031EFAD0104B9847104B984703001D
S1133E60012B08D028200B4B9847031E05D00A20AD
S1133E70044B9847E4E7C04600E0C046BD4604B0A2
S1133E8080BDC046255700000F0E0000A13E000073
S1133E90881300007D420000C9430000A5450000CE
S1133EA090B589B000AF584B00211800574B984784
S1133EB03A00554802230021554CA0473B005B784B
S1133EC01B023A0012781A43524B10009847030021
S1133ED00C00BB61FC61504C0022504BB869F9697D
S1133EE0A04703000C00180021004D4C00224D4B4C
S1133EF0A04703000C00180021004B4C00224B4B40
S1133F00A04703000C0018002100454C0022484B38
S1133F10A04703000C00180021003F4C0022454B31
S1133F20A04703000C00BB61FC61374B0021180063
S1133F30414B9847414B00211800344B98473A1D98
S1133F403E4802230021324CA0473B1D5B781B02F4
S1133F503A1D12781A432F4B1000984703000C00A7
S1133F603B617C612C4C364A364B38697969A047F1
S1133F7003000C003B617C612B4C0022324B3869FE
S1133F807969A04703000C0018002100244C00228A
S1133F902E4BA04703000C003B617C611E4C0022A9
S1133FA02B4B38697969A04703000C0018002100E5
S1133FB01B4C0022274BA04703000C0018002100D3
S1133FC0254C0022254BA04703000C00BB60FC607D
S1133FD01A4B00211800184B9847214C0022214B02
S1133FE0B868F968A047031E09D01D4C00221E4B77
S1133FF0B869F969A047031E01D0002300E001233A
S11340001800BD4609B090BDB4270020150E00006D
S11340109D0E0000B18200008577000000C8A94011
S11340201D6F000000FEAF40857C00000000794059
S11340300000994000004940590E0000B8270020B4
S11340409A9CC9999CC9E93F00407F4000002440E4
S11340500000224000001440FD68000000004040C1
S1134060AD680000000054400000204080B500AF5F
S113407000200C4B9847C04600200B4B9847030088
S1134080012BF9D0094B73221A70084B35225A7050
S1134090064B00229A700320054B9847C046BD4644
S11340A080BDC046294200007D42000058280020FF
S11340B0B540000080B582B000AF7860174B1B6834
S11340C07A6892B216491800164B98476420164B2A
S11340D09847164B1800164B9847031E09D00F4BF0
S11340E01B68144901221800134B98470200134B14
S11340F01A60FA235B0018000B4B98470D4B1B7892
S1134100732BE6D10D4B1A680A4B110018000C4BA7
S11341109847C046BD4602B080BDC046F027002087
S1134120582800201116000025570000A827002059
S113413051190000F427002065160000DC0000205F
S1134140B145000080B584B000AF2C4B00221A604A
S11341500023FB602A4B30221A7042E03B1D294A9F
S113416012881A80284B1B68391D02221800274B1D
S11341709847C046264B1800264B9847031EF9D093
S11341800023BB601CE0224B1800224B9847031EFF
S113419010D01D4B1868FA68194BD3180122190066
S11341A01D4B98470200154B1A60FB680133FB60F6
S11341B00023BB600120194B9847BB680133BB60E7
S11341C0BB68174A9342DEDD0023FB600C4B1B786F
S11341D0302B06D1094B1A68094B11001800114BFA
S11341E09847074B1B78302BB8D0054B1B78002B16
S11341F0B4D0C046BD4604B080BDC046DC0000203B
S1134200F4270020CC850000F027002011160000C0
S1134210A82700205119000065160000255700004A
S1134220E7030000B145000080B582B000AF7860BC
S11342307B68022B04D10C4B18000C4B984710E000
S1134240094B1800094B98476420094B98477B6831
S11342505A1E9341DBB219003120064B9847064B96
S11342609847BD4602B080BDD427002071170000D6
S113427025570000753B00009D42000080B582B0C8
S113428000AF78607B68DBB21800034B98470300EB
S11342901800BD4602B080BDB53B000080B590B0AB
S11342A000AF3A00424B1000190040231A00414B62
S11342B098473B00DB6819003B00DB68002B00DA01
S11342C001335B101A003C4B18003C4B98473A4BA7
S11342D018003B4B98470A203A4B98473B001B6910
S11342E019003B001B69002B00DA01335B101A0034
S11342F0314B1800314B98470A20324B98473B000A
S11343005B6919003B005B69002B00DA01335B1029
S11343101A00294B1800294B98470A20294B984723
S11343203B009B6919003B009B69002B00DA0133B9
S11343305B101A00204B1800204B98470A20214B91
S113434098473B00DB6919003B00DB69002B00DA6E
S113435001335B101A00184B1800184B98470A20B9
S1134360184B98473B001B6A19003B001B6A002B43
S113437000DA01335B101A000F4B18000F4B9847FB
S11343800A20104B98473B005B6A19003B005B6AAC
S1134390002B00DA01335B101A00074B1800074B9F
S11343A098470A20074B9847C046BD4610B080BDC9
S11343B0D0850000B9830000D4270020C91700006D
S11343C0211700002557000080B500AFC6E0142077
S11343D06F4B984703001A0001235340DBB2002BB4
S11343E009D115206A4B984703001A000123534052
S11343F0DBB2002B02D00220664B98470920644BA5
S1134400984703001A0001235340DBB2002B16D057
S113441015205F4B9847031E11D002205D4B98472F
S113442000205C4B9847C0460920594B984703002D
S11344301A0001235340DBB2002BF5D18EE00A2091
S1134440534B984703001A0001235340DBB2002B5F
S113445016D014204E4B9847031E11D002204D4B0A
S1134460984701204B4B9847C0460A20484B984731
S113447003001A0001235340DBB2002BF5D16DE099
S11344800B20434B984703001A0001235340DBB22F
S1134490002B1AD002203F4B98473F4B73221A70CF
S11344A03D4B35225A703C4B00229A7003203B4B03
S11344B09847C0460B20364B984703001A00012347
S11344C05340DBB2002BF5D148E03E20304B9847F7
S11344D003001A0001235340DBB2002B1AD0022040
S11344E02C4B98472C4B73221A702B4B36225A7044
S11344F0294B00229A700320284B9847C0463E203F
S1134500234B984703001A0001235340DBB2002BCE
S1134510F5D123E03F201E4B984703001A000123E6
S11345205340DBB2002B19D002201A4B98471A4B88
S113453073221A70184B37225A70174B00229A7044
S11345400320164B9847C0463F20114B9847030061
S11345501A0001235340DBB2002BF5D123200C4B6E
S11345609847031E00D032E702200A4B98470A4BB3
S113457073221A70084B38225A70074B00229A7023
S11345800320064B9847064B9847C046BD4680BD5E
S1134590B53B00002942000058280020B540000027
S11345A06D40000080B500AF00231800BD4680BDFB
S11345B080B584B000AF786039600023FB6007E009
S11345C0FB687A68D31800221A70FB680133FB6019
S11345D0FA683B689A42F3DBC046BD4604B080BD2E
S11345E080B582B000AF786039603A680121002359
S11345F091425B41DBB20C492B2218000B4B9847CC
S11346003B68190001200A4B984702007B681A6036
S11346107B681B68002B01D0002301E014235B425C
S11346201800BD4602B080BD10860000FD1A0000CF
S11346302D4C000080B582B000AF78607B680833F1
S11346401A007B685A607B68012252429A607B6838
S113465008331A007B68DA607B6808331A007B68C9
S11346601A617B6800221A60C046BD4602B080BD54
S113467080B582B000AF78607B6800221A61C046C2
S1134680BD4602B080BD80B584B000AF78603960AB
S11346907B685B68FB603B68FA685A60FB689A68F1
S11346A03B689A60FB689B683A685A60FB683A68A2
S11346B09A603B687A681A617B681B685A1C7B683D
S11346C01A60C046BD4604B080BD80B584B000AF5A
S11346D0786039603B681B68BB60BB68013303D1F9
S11346E07B681B69FB600CE07B680833FB6002E0BD
S11346F0FB685B68FB60FB685B681A68BB689A428E
S1134700F6D9FB685A683B685A603B685B683A684C
S11347109A603B68FA689A60FB683A685A603B683A
S11347207A681A617B681B685A1C7B681A60C046E9
S1134730BD4604B080BD80B584B000AF78607B68AE
S11347401B69FB607B685B687A6892689A607B6827
S11347509B687A6852685A60FB685A687B689A4218
S113476003D17B689A68FB685A607B6800221A61EF
S1134770FB681B685A1EFB681A60FB681B681800FC
S1134780BD4604B080BD000080B584B000AFF860C1
S1134790B9607A60FB68043BFB60FB6880225204CA
S11347A01A60FB68043BFB60BA68FB681A60FB682C
S11347B0043BFB60084AFB681A60FB68143BFB601F
S11347C07A68FB681A60FB68203BFB60FB68180092
S11347D0BD4604B080BDC046DD47000080B582B050
S11347E000AF00237B60074B1B68013301D072B616
S11347F0FEE772B6C0467B68002BFCD0C046BD46BF
S113480002B080BD2800002080B500AFC046BD4680
S113481080BD000000000000000000000000000057
S11348200B4A13681868203080F30988022080F34B
S11348301488BFF36F8F3FBCAE4608BC04BC62B69D
S11348401847C046C046C046C046C046C046C046DB
S113485068260020C046C04680B500AF0E4B0E4A05
S11348601268FF2109040A431A600B4B0A4A1268B2
S1134870FF2109060A431A60084B9847084B002297
S11348801A60084B9847084B9847084B98470023F1
S11348901800BD4680BDC04620ED00E0C9490000B7
S11348A02800002021480000E55A0000DD470000F0
S11348B080B500AF054B802252051A60BFF34F8FBD
S11348C0BFF36F8FC046BD4680BDC04604ED00E017
S11348D080B500AF72B6064B1B685A1C044B1A60B5
S11348E0BFF34F8FBFF36F8FC046BD4680BDC04638
S11348F02800002080B500AF094B1B68002B01D1B4
S113490072B6FEE7064B1B685A1E054B1A60044B31
S11349101B68002B00D162B6C046BD4680BDC046B0
S113492028000020EFF3108072B67047C0461800CC
S113493080F310887047C0460000000000000000AB
S1134940EFF309800E4B1A6820381060F0C044461B
S11349504D4656465F46F0C008B572B601F0C2F83F
S113496062B60CBC116808681030F0C8A046A946AD
S1134970B246BB4680F309882038F0C81847C046C1
S113498068260020C046C04680B582B000AF0A4BFE
S1134990984703007B60094B9847031E03D0084BDC
S11349A0802252051A607B681800064B9847C0465F
S11349B0BD4602B080BDC0462549000071590000C3
S11349C004ED00E03149000080B500AF074B002240
S11349D01A60074B00221A60064B074A1A60034B01
S11349E007221A60C046BD4680BDC04610E000E004
S11349F018E000E014E000E09F0F000080B584B0F0
S1134A0000AF78600023FB607B680722134004D06A
S1134A107B680722934308337B60174B9847174BF7
S1134A201B68002B05D1164B072293431A00134B26
S1134A301A60144B1A687B68D318134A934213D82C
S1134A40104B1A687B68D2180E4B1B689A420BD91C
S1134A500A4B1A680B4B1B68D318FB60094B1A6886
S1134A607B68D218074B1A60084B9847FB681800FC
S1134A70BD4604B080BDC04609580000642600202D
S1134A80E80000206026002077250000215800005F
S1134A9080B582B000AF78607B68002B01D072B61D
S1134AA0FEE7C046BD4602B080BD000080B584B0BC
S1134AB000AF786039607B68FB60FB68002B01D134
S1134AC072B6FEE7234B9847FB681A68FB68D96BFC
S1134AD0FB681B6C4B43D218FB685A60FB680022CE
S1134AE09A63FB681A68FB689A60FB681A68FB683B
S1134AF0DB6B591EFB681B6C4B43D218FB68DA60F6
S1134B00FB684422FF219954FB684522FF219954F4
S1134B103B68002B0DD1FB681B69002B13D0FB688D
S1134B20103318000C4B9847031E0CD00B4B9847BE
S1134B3009E0FB6810331800094B9847FB682433DD
S1134B401800074B9847074B984701231800BD46A8
S1134B5004B080BDD1480000215C0000B1480000D1
S1134B6035460000F548000090B58BB002AFF86000
S1134B70B960FB1D1A70FB68002B01D172B6FEE709
S1134B80BB68002B02D10023FB6103E0FB68BA6819
S1134B905343FB61FB69543318000C4B98470300E3
S1134BA0BB61BB69002B0CD0BB6954337B61FB1D1B
S1134BB01C787A69B968F868BB6900932300044CCF
S1134BC0A047BB691800BD4609B090BDFD4900006F
S1134BD0D54B000080B584B000AFF860B9607A604E
S1134BE01A00FB1C1A70BB68002B03D1BB69BA699D
S1134BF01A6002E0BB697A681A60BB69FA68DA6312
S1134C00BB69BA681A64BB6901211800064B98474E
S1134C10BB69FA1C502112785A54BB6900229A6469
S1134C20C046BD4604B080BDAD4A000080B584B026
S1134C3000AF786039607B68002B01D172B6FEE763
S1134C403A687B689A4201D972B6FEE77B68022211
S1134C5000211800074B98470300FB60FB68002BFA
S1134C6002D0FB683A689A63FB681800BD4604B03A
S1134C7080BDC046694B000080B58AB000AFF860C3
S1134C80B9607A603B6000237B62FB683B623B6AED
S1134C90002B01D172B6FEE7BB68002B03D13B6A3F
S1134CA01B6C002B01D1012300E00023002B01D158
S1134CB072B6FEE73B68022B03D13B6ADB6B012B28
S1134CC001D1012300E00023002B01D172B6FEE7DD
S1134CD0534B9847031E02D17B68002B01D101235B
S1134CE000E00023002B01D172B6FEE74D4B98473C
S1134CF03B6A9A6B3B6ADB6B9A4202D33B68022B9A
S1134D002DD13A68B9683B6A1800474B98470300AD
S1134D10FB613B6A9B6C002B0AD03A683B6A11002A
S1134D201800424B9847031E15D0414B984712E098
S1134D303B6A5B6A002B09D03B6A243318003D4B65
S1134D409847031E07D03A4B984704E0FB69002BB1
S1134D5001D0374B9847384B984701235CE07B6878
S1134D60002B03D1344B9847002355E07B6A002B7A
S1134D7006D11423FB181800304B984701237B629B
S1134D802D4B98472E4B9847264B98473B6A442215
S1134D909B5C5BB2013303D13B6A442200219954EA
S1134DA03B6A45229B5C5BB2013303D13B6A4522DB
S1134DB000219954204B98473A1D1423FB181100E5
S1134DC01800204B9847031E1FD13B6A18001E4B46
S1134DD09847031E12D03B6A10337A6811001800FA
S1134DE01A4B98473B6A1800194B9847194B984738
S1134DF0031E00D07AE70E4B984777E73B6A18000A
S1134E00134B9847134B984770E73B6A1800104BB5
S1134E109847104B984700231800BD460AB080BD40
S1134E20595F0000D148000019510000F9530000F7
S1134E30B1480000215C0000F5480000E15C00007E
S1134E4009580000095D000049530000895B000017
S1134E50255200002158000080B588B000AFF860EA
S1134E60B9607A603B60FB68BB61BB69002B01D110
S1134E7072B6FEE7BB68002B03D1BB691B6C002B29
S1134E8001D1012300E00023002B01D172B6FEE71B
S1134E903B68022B03D1BB69DB6B012B01D10123DE
S1134EA000E00023002B01D172B6FEE72D4B98479A
S1134EB003007B61BB699A6BBB69DB6B9A4202D3CB
S1134EC03B68022B42D11323FB18BA694521525C7B
S1134ED01A703A68B968BB691800234B98471323C2
S1134EE0FB181B785BB2013324D1BB699B6C002B8C
S1134EF00ED03A68BB69110018001C4B9847031E7A
S1134F0021D07B68002B1ED07B6801221A601AE036
S1134F10BB695B6A002B16D0BB6924331800144BA1
S1134F209847031E0FD07B68002B0CD07B680122AE
S1134F301A6008E01323FB181B780133DBB259B263
S1134F40BB69452299540123FB6101E00023FB6105
S1134F507B691800074B9847FB691800BD4608B0E9
S1134F6080BDC0462549000019510000F9530000D6
S1134F70215C00003149000080B58AB000AFF860C0
S1134F80B9607A6000237B62FB683B623B6A002B5A
S1134F9001D172B6FEE7BB68002B03D13B6A1B6CE0
S1134FA0002B01D1012300E00023002B01D172B6B4
S1134FB0FEE74C4B9847031E02D17B68002B01D1BE
S1134FC0012300E00023002B01D172B6FEE7464B1B
S1134FD098473B6A9B6BFB61FB69002B1AD0BA684C
S1134FE03B6A11001800414B9847FB695A1E3B6A03
S1134FF09A633B6A1B69002B08D03B6A1033180084
S11350003B4B9847031E01D03A4B98473A4B98477D
S1135010012362E07B68002B03D1374B98470023C0
S11350205BE07B6A002B06D11423FB181800334B7A
S1135030984701237B62304B9847314B98472A4B62
S113504098473B6A44229B5C5BB2013303D13B6AC1
S11350504422002199543B6A45229B5C5BB2013394
S113506003D13B6A452200219954234B98473A1DAA
S11350701423FB1811001800224B9847031E1ED15D
S11350803B6A1800204B9847031E11D03B6A243317
S11350907A68110018001D4B98473B6A18001C4B96
S11350A098471C4B9847031E91D1124B98478EE7A3
S11350B03B6A1800164B9847164B984787E73B6A9C
S11350C01800134B9847134B98473B6A18000E4B34
S11350D09847031E00D17AE700231800BD460AB0A2
S11350E080BDC046595F0000D1480000D551000082
S11350F0215C0000B1480000F5480000E15C0000BC
S113510009580000095D000015530000895B000088
S1135110255200002158000080B586B000AFF86029
S1135120B9607A6000233B61FB689B6B7B61FB6821
S11351301B6C002B43D07B68002B19D1FB6898684B
S1135140FB681A6CBB681900214B9847FB689A6886
S1135150FB681B6CD218FB689A60FB689A68FB6852
S11351605B689A422BD3FB681A68FB689A6026E056
S1135170FB68D868FB681A6CBB681900144B984725
S1135180FB68DA68FB681B6C5B42D218FB68DA6068
S1135190FB68DA68FB681B689A4207D2FB685A68A6
S11351A0FB681B6C5B42D218FB68DA607B68022BDD
S11351B005D17B69002B02D07B69013B7B617B6954
S11351C05A1CFB689A633B691800BD4606B080BD53
S11351D0B983000080B582B000AF786039607B6825
S11351E01B6C002B18D07B68DA687B681B6CD218A8
S11351F07B68DA607B68DA687B685B689A4203D311
S11352007B681A687B68DA607B68D9687B681A6C8B
S11352103B681800024B9847C046BD4602B080BDAB
S1135220B983000080B584B000AF7860344B9847F0
S11352300F23FB187A684521525C1A7022E07B68C0
S11352409B6C002B09D07B68002118002D4B9847DC
S1135250031E0FD02C4B98470CE07B685B6A002B35
S113526017D07B6824331800284B9847031E01D0BD
S1135270254B98470F23FB181B78013BDAB20F2309
S1135280FB181A700F23FB181B785BB2002BD6DCBB
S113529000E0C0467B684522FF2199541C4B984787
S11352A0174B98470E23FB187A684421525C1A70F6
S11352B014E07B681B69002B17D07B68103318003F
S11352C0124B9847031E01D00F4B98470E23FB182F
S11352D01B78013BDAB20E23FB181A700E23FB185D
S11352E01B785BB2002BE4DC00E0C0467B68442200
S11352F0FF219954064B9847C046BD4604B080BD73
S1135300D1480000F9530000B55D0000215C0000A5
S1135310F548000080B584B000AF7860084B98472A
S11353207B689B6B002B02D10123FB6001E000230F
S1135330FB60044B9847FB681800BD4604B080BD71
S1135340D1480000F548000080B584B000AF786013
S1135350094B98477B689A6B7B68DB6B9A4202D156
S11353600123FB6001E00023FB60044B9847FB68CA
S11353701800BD4604B080BDD1480000F5480000C7
S113538080B586B000AFF860B9607A60FB687B6175
S1135390154B98477B6944229B5C5BB2013303D174
S11353A07B694422002199547B6945229B5C5BB252
S11353B0013303D17B694522002199540B4B984753
S11353C07B699B6B002B06D17B6924337A68B968AF
S11353D01800074B98477B691800064B9847C0464E
S11353E0BD4606B080BDC046D1480000F548000067
S11353F0CD5B00002552000080B586B000AF786018
S113540039607B689B6C3B6100237B613B69002BAB
S113541001D172B6FEE73B699A6B3B69DB6B9A423A
S113542001D372B6FEE73B699A6B3B69DB6B9A4228
S11354302AD20F23FB183A694521525C1A703A6844
S1135440391D3B691800134B984703007B610F23F8
S1135450FB181B785BB201330DD13B695B6A002BEF
S113546012D03B69243318000B4B9847031E0BD012
S113547001237B6108E00F23FB181B780133DBB2A7
S113548059B23B69452299547B691800BD4606B060
S113549080BDC04619510000215C000090B58DB05C
S11354A004AFF860B9603B60BB1D1A80BB1D1B884C
S11354B09B0018001D4B984703007B617B69002B00
S11354C010D04C20194B98470300FB61FB69002B5B
S11354D003D0FB697A691A6306E07B691800144BF0
S11354E0984701E00023FB61FB69002B16D0BB1D2C
S11354F01A883C68B968F86800230393FB6902932F
S11355007B6B01933B6B009323000A4CA047FB6920
S11355101800094B98470123BB6102E001235B4259
S1135520BB61BB691800BD4609B090BDFD490000D0
S1135530914A00003D5500004156000080B586B0F8
S113554000AFF860B9607A603B60BB6A186B7B6837
S11355509B001A00A521364B9847BB6A1A6B7B68DF
S113556034498C4663449B00D3183B613B69072252
S113557093433B613B690722134001D072B6FEE7B7
S113558000237B6113E0BA687B69D3181878BA6A80
S113559034217B69D3185B18021C1A70BA687B69C2
S11355A0D3181B78002B06D07B6901337B617B69A0
S11355B0072BE8D900E0C046BB6A3B22002199547E
S11355C03B6A042B01D904233B62BB6A3A6ADA6260
S11355D0BB6A04331800184B9847BB6A1833180089
S11355E0154B9847BB6ABA6A1A613B6A0522D21AFC
S11355F0BB6A9A61BB6ABA6A5A62BB6A00225A647D
S1135600BB6A4822002199543A68F9683B6918003A
S11356100A4B98470200BB6A1A607B6A002B02D0CF
S11356207B6ABA6A1A60C046BD4606B080BDC046F1
S1135630CB830000FFFFFF3F714600008947000055
S113564080B582B000AF78602B4B98472B4B1B681A
S11356505A1C2A4B1A602A4B1B68002B09D1284B71
S11356607A681A60254B1B68012B10D1254B98478B
S11356700DE0254B1B68002B09D1214B1B68DA6A0E
S11356807B68DB6A9A4202D81D4B7A681A601F4B0A
S11356901B685A1C1D4B1A601C4B1A687B68DA6322
S11356A07B68DA6A1A4B1B689A4203D97B68DA6A08
S11356B0174B1A607B68DA6A13009B009B189B00E7
S11356C0144A9A187B68043319001000124B984747
S11356D0124B98470C4B1B68002B08D0084B1B68D7
S11356E0DA6A7B68DB6A9A4201D20D4B9847C0465E
S11356F0BD4602B080BDC046D1480000402700200E
S113570068260020F15D00004C2700205C27002063
S1135710482700206C26002087460000F54800003A
S1135720B148000080B584B000AF78600023FB600E
S11357307B68002B10D00D4B1B68002B01D072B678
S1135740FEE70B4B98477B6800211800094B9847EC
S1135750094B98470300FB60FB68002B01D1074B02
S11357609847C046BD4604B080BDC04668270020A7
S1135770095800002162000021580000B1480000CF
S113578090B585B002AF80239A0016491648174B8E
S11357900193002300930023154CA04703007B6072
S11357A07B68012B03D1134B984703007B607B6814
S11357B0012B0DD172B6104B012252421A600F4BCD
S11357C001221A600E4B00221A600E4B984704E027
S11357D07B68013301D172B6FEE7C046BD4603B013
S11357E090BDC04648860000C95D000064270020C3
S11357F09D540000D5620000602700204C27002043
S1135800442700205948000080B500AF034B1B68B3
S11358105A1C024B1A60C046BD4680BD6827002052
S113582080B584B000AF0023FB600023BB603A4B1B
S11358301B68002B01D172B6FEE7384B9847364BF4
S11358401B685A1E344B1A60334B1B68002B5BD108
S1135850334B1B68002B57D02FE0324BDB68DB68DF
S1135860FB60FB68183318002F4B9847FB68043320
S113587018002D4B9847FB68DA6A2C4B1B689A4238
S113588003D9FB68DA6A294B1A60FB68DA6A1300E9
S11358909B009B189B00264A9A18FB680433190046
S11358A01000244B9847FB68DA6A234B1B68DB6AB9
S11358B09A4202D3214B01221A601A4B1B68002B17
S11358C0CBD1FB68002B01D01D4B98471D4B1B68A7
S11358D07B607B68002B0FD01B4B9847031E02D0C4
S11358E0164B01221A607B68013B7B607B68002BAE
S11358F0F2D1144B00221A60104B1B68002B03D00A
S11359000123BB60114B9847114B9847BB681800A3
S1135910BD4604B080BDC04668270020D1480000C1
S11359204027002000270020374700004827002098
S11359306C2600208746000068260020542700209B
S1135940115F00005027002071590000B148000089
S1135950F548000080B582B000AF044B1B687B6043
S11359607B681800BD4602B080BDC04644270020B5
S113597080B586B000AF00237B614C4B1B68002BC5
S113598000D083E04A4B1B6801333B61484B3A69C2
S11359901A603B69002B17D1464B1B681B68002B10
S11359A001D072B6FEE7434B1B68FB60424B1A689A
S11359B0404B1A60404BFA681A60404B1B685A1CF3
S11359C03E4B1A603E4B98473E4B1B683A699A42DD
S11359D04ED3384B1B681B68002B01D1012300E018
S11359E00023002B04D0374B012252421A603FE0BF
S11359F0304B1B68DB68DB68BB60BB685B687B6043
S1135A003A697B689A4203D22E4B7A681A602FE077
S1135A10BB68043318002C4B9847BB689B6A002B67
S1135A2004D0BB6818331800274B9847BB68DA6A60
S1135A30264B1B689A4203D9BB68DA6A234B1A6067
S1135A40BB68DA6A13009B009B189B00204A9A18D3
S1135A50BB680433190010001E4B9847BB68DA6A10
S1135A601D4B1B68DB6A9A42B3D301237B61B0E709
S1135A70194B1B68DA6A164913009B009B189B009C
S1135A805B58012B07D901237B6104E0134B1B688E
S1135A905A1C124B1A60124B1B68002B01D00123B5
S1135AA07B617B691800BD4606B080BD6827002075
S1135AB044270020F8260020FC2600205827002038
S1135AC0115F0000602700203747000048270020AE
S1135AD06C260020874600006826002050270020FE
S1135AE05427002080B582B000AF224B1B68002BE6
S1135AF003D0214B01221A6037E01F4B00221A60A9
S1135B001E4B1B687B6007E07B68002B01D172B6DB
S1135B10FEE77B68013B7B6019497A6813009B00B0
S1135B209B189B005B58002BEED07A6813009B00F7
S1135B309B189B00124A9B183B603B685B685A6841
S1135B403B685A603B685A683B6808339A4204D100
S1135B503B685B685A683B685A603B685B68DA6814
S1135B60084B1A60054B7A681A60C046BD4602B0FD
S1135B7080BDC04668270020542700204827002005
S1135B806C2600206826002080B582B000AF7860C3
S1135B9039607B68002B01D172B6FEE7084B1B68A5
S1135BA018331A007B6811001800064B98473B68AD
S1135BB001211800044B9847C046BD4602B080BD81
S1135BC068260020CB4600002162000080B584B026
S1135BD000AFF860B9607A60FB68002B01D172B63F
S1135BE0FEE70C4B1B6818331A00FB681100180001
S1135BF0094B98477B68002B02D001235B42BB60B2
S1135C007A68BB6811001800044B9847C046BD462B
S1135C1004B080BD68260020874600002162000091
S1135C2080B584B000AF78607B68DB68DB68BB60FC
S1135C30BB68002B01D172B6FEE7BB6818331800AD
S1135C401F4B98471F4B1B68002B1DD1BB680433A7
S1135C5018001B4B9847BB68DA6A1B4B1B689A42B7
S1135C6003D9BB68DA6A184B1A60BB68DA6A130096
S1135C709B009B189B00154A9A18BB6804331900B3
S1135C801000134B984707E0BB6818331A00114BF8
S1135C90110018000E4B9847BB68DA6A0E4B1B685C
S1135CA0DB6A9A4205D90123FB600C4B01221A607E
S1135CB001E00023FB60FB681800BD4604B080BD12
S1135CC03747000068270020482700206C26002062
S1135CD08746000000270020682600205427002063
S1135CE080B582B000AF7860054B1A687B681A6093
