:100000003848002031010000B5010000B5010000B2
:1000100000000000000000000000000000000000E0
:10002000000000000000000000000000153A000081
:100030000000000000000000413B0000893B000080
:10004000B5010000B5010000B5010000B5010000D8
:10005000B5010000B5010000B5010000B5010000C8
:10006000B5010000B5010000B5010000B5010000B8
:10007000B5010000B5010000B5010000B5010000A8
:10008000B5010000B5010000B5010000B501000098
:10009000592D0000B5010000B5010000B5010000B8
:1000A000B5010000B5010000B5010000B501000078
:1000B000B5010000B5010000B501000010B5064C07
:1000C0002378002B07D1054B002B02D0044800E019
:1000D00000BF0123237010BD2C0000200000000091
:1000E000705F0000084B10B5002B03D0074908488B
:1000F00000E000BF07480368002B00D110BD064B8D
:10010000002BFBD09847F9E70000000030000020EA
:10011000705F0000705F00000000000080B500AF5D
:10012000024B9847C046BD4680BDC046290B000023
:1001300080B582B000AF164B7B60164B3B607A688F
:100140003B689A420CD007E03B681A1D3A607A6817
:10015000111D796012681A603A680F4B9A42F3D306
:100160000E4B3B6004E03B681A1D3A6000221A60A7
:100170003A680B4B9A42F6D30A4B7B600A4B7A687B
:10018000FF218A439A60094B9847094B9847FEE73D
:10019000705F0000000000202C0000202C000020D8
:1001A000382800200000000000ED00E0715D000034
:1001B000592E000080B500AFFEE780B584B000AFD7
:1001C000F8607A600B23FB180A1C1A700B23FB18CB
:1001D0001A78FB68203292007968D150C046BD463B
:1001E00004B080BD80B582B000AF78607B68DB6909
:1001F00010221A437B68DA61C046BD4602B080BD5A
:1002000080B582B000AF78607B68DB6980225201E4
:100210001A437B68DA61C046BD4602B080BD80B536
:1002200082B000AF78607B68DB69802292021A435B
:100230007B68DA61C046BD4602B080BD80B584B03F
:1002400000AFF8607A600B23FB180A1C1A700B23AE
:10025000FB181B78FA68DB01D31808337A681A6038
:10026000C046BD4604B080BD80B584B000AFF86024
:100270007A600B23FB180A1C1A700B23FB181B78DF
:10028000FA68DB01D31804337A681A60C046BD46A9
:1002900004B080BD80B584B000AFF8607A600B23F5
:1002A000FB180A1C1A700B23FB181B78FA68DB0179
:1002B000D31818337A681A60C046BD4604B080BDB2
:1002C00080B584B000AFF8607A600B23FB180A1C7D
:1002D0001A700B23FB181B78FA68DB01D318143350
:1002E0007A681A60C046BD4604B080BD90B585B03E
:1002F00000AF78600C0010001900FB1C221C1A7063
:10030000BB1C021C1A707B1C0A1C1A70FB1C19787F
:10031000BB1C1A780F23FB1878683024C9014118D8
:100320008A18121912781A700F23FB180F22BA18A4
:1003300012780F218A431A707B1C1B780F221340FE
:10034000D9B20F23FB180F22BA1812780A431A7079
:10035000FB1C1A78BB1C1B7879683020D2018A18E4
:10036000D3181B180F22BA1812781A70C046BD464F
:1003700005B090BD90B585B000AF78600C0010005E
:100380001900FB1C221C1A70BB1C021C1A707B1C5F
:100390000A1C1A70FB1C1978BB1C1A780F23FB1857
:1003A00078683024C90141188A18121912781A7015
:1003B0000F23FB180F22BA1812780F210A401A7067
:1003C0007B1C1B781B01D9B20F23FB180F22BA1814
:1003D00012780A431A70FB1C1A78BB1C1B787968C8
:1003E0003020D2018A18D3181B180F22BA1812789D
:1003F0001A70C046BD4605B090BD90B585B000AF3F
:1004000078600C0010001900FB1C221C1A70BB1C29
:10041000021C1A707B1C0A1C1A70FB1C1978BB1C6E
:100420001A780F23FB1878684024C90141188A18EC
:10043000121912781A700F23FB180F22BA181278AB
:1004400001218A431A707B1C19780F23FB180F2295
:10045000BA1812780A431A70FB1C1A78BB1C1B7856
:1004600079684020D2018A18D3181B180F22BA18B5
:1004700012781A70C046BD4605B090BDB0B582B0C6
:1004800000AF786008001100FB1C021C1A70BB1C36
:100490000A1C1A70FB1C1A78BB1C1B78F91C087804
:1004A000B91C09787C684025C001201841184919F9
:1004B0000978C9B204200143CCB279684020D20146
:1004C0008A18D3181B18221C1A70C046BD4602B0E9
:1004D000B0BDB0B582B000AF786008001100FB1C61
:1004E000021C1A70BB1C0A1C1A70FB1C1A78BB1C5D
:1004F0001B78F91C0878B91C09787C684025C00174
:100500002018411849190978C9B204208143CCB296
:1005100079684020D2018A18D3181B18221C1A703F
:10052000C046BD4602B0B0BD80B584B000AFF86033
:100530007A600B23FB180A1C1A700B23FB181B781C
:10054000FA68DB01D31828337A681A60C046BD46C2
:1005500004B080BD80B582B000AF39601100FB1DD2
:10056000021C1A70BB1D0A1C1A70BB1D1B78012BC4
:1005700025D0022B43D0002B63D13A68FB1D19789C
:10058000C023DB051800344B98473B681B041B0C49
:100590008022D2051A43FB1D19788223DB0518003F
:1005A0002E4B98473B681B0CC02212061A43FB1DBA
:1005B00019788223DB051800284B984747E03A68F2
:1005C000FB1D1978C023DB051800234B98473B68B7
:1005D0001B041B0C224A1A43FB1D19788223DB05DE
:1005E00018001E4B98473B681B0C1E4A1A43FB1D04
:1005F00019788223DB051800184B984727E03A68E2
:10060000FB1D1978C023DB051800174B98473B6882
:100610001B041B0C8022D2051A43FB1D1978822370
:10062000DB0518000D4B98473B681B0CC0221206D7
:100630001A43FB1D19788223DB051800074B9847E6
:1006400005E00A4B462219000020094B9847C04696
:10065000BD4602B080BDC046690200002905000009
:1006600000000240000002C03D020000DC5D00000E
:100670003113000080B582B000AF39601100FB1D5E
:10068000021C1A70BB1D0A1C1A70BB1D1B78002BA4
:1006900008D03A68FB1D1978C023DB051800074B0A
:1006A000984707E03A68FB1D1978C023DB0518005E
:1006B000034B9847C046BD4602B080BD950200007E
:1006C000C102000090B583B000AF04000800110023
:1006D000FB1D221C1A70BB1D021C1A707B1D0A1CFC
:1006E0001A707B1D1B78012B0DD0022B2BD0002BF9
:1006F00049D1BB1D1A78FB1D19788223DB05180030
:10070000264B984746E0BB1D1B7801229A40FB1DF3
:100710001978C023DB051800214B9847BB1D1A78B8
:10072000FB1D19788223DB0518001E4B9847BB1D63
:100730001B7801229A40FB1D1978C023DB051800A5
:10074000194B984726E0BB1D1B7801229A40FB1DE0
:100750001978C023DB051800114B9847BB1D1A7888
:10076000FB1D19788223DB0518000E4B9847BB1D33
:100770001B7801229A40FB1D1978C023DB05180065
:100780000A4B984706E00A4B892219000020094BC2
:100790009847C046C046BD4603B090BDD304000094
:1007A000690200007D04000095020000C102000003
:1007B000DC5D00003113000090B585B000AF7860BB
:1007C00039607B685A090F23FB181A707B68DAB20C
:1007D0000E23FB181F210A401A703B6801330BD10E
:1007E0000E23FB181A780F23FB1819788223D805DB
:1007F00000231B4CA0472FE00E23FB181A780F2371
:10080000FB1819788223D8050123154CA0470E2325
:10081000FB181B78012213400FD00E23FB181B7806
:100820005B08DAB23B68DCB20F23FB18197882232D
:10083000D80523000B4CA0470EE00E23FB181B78B5
:100840005B08DAB23B68DCB20F23FB18197882230D
:10085000D8052300044CA047C046BD4605B090BD56
:10086000FB03000075030000ED02000080B582B0BC
:1008700000AF0200FB1D1A70BB1D0A1C1A70FB1D85
:100880001B785B09D8B2FB1D1B781F221340D9B21D
:10089000BB1D1B781A00034B9847C046BD4602B0EB
:1008A00080BDC046C506000080B582B000AF78604C
:1008B00039603A687B6811001800034B9847C046BE
:1008C000BD4602B080BDC046B907000080B582B009
:1008D00000AF0200FB1D1A70BB1D0A1C1A70FB1D25
:1008E0001B785B09D8B2FB1D1B781F221340012225
:1008F0009A401100BB1D1B781A00034B9847C04655
:10090000BD4602B080BDC0465505000080B582B02E
:1009100000AF0200FB1D1A70BB1D0A1C1A70FB1DE4
:100920001B785B09D8B2FB1D1B781F2213400122E4
:100930009A401100BB1D1B781A00034B9847C04614
:10094000BD4602B080BDC0467506000080B500AF50
:10095000024B9847C046BD4680BDC046911B000073
:1009600080B500AF00212920044B9847044B1900A3
:100970002920044B9847C046BD4680BDCD080000E5
:1009800001002900A908000080B500AF064B18003F
:10099000064B9847064B402221211800054B9847EB
:1009A000C046BD4680BDC046000800401F02000092
:1009B000001C0040BB01000080B500AF074B98470A
:1009C000074B9847074B984702000749074B180009
:1009D000074B9847C046BD4680BDC0468909000008
:1009E00061090000611B0000004400424C27002008
:1009F000D50B000080B500AF064B19001620064B42
:100A00009847064B19001720034B9847C046BD4630
:100A100080BDC04602001600A908000002001700B1
:100A200080B500AF094B402216211800084B9847AB
:100A3000064B422212211800054B9847054B18001F
:100A4000054B9847C046BD4680BDC046001C0040CF
:100A5000BB01000000080040E501000080B500AFC8
:100A6000064B98470649074B00221800064B98474B
:100A7000064B9847C046BD4680BDC046210A0000CF
:100A8000001000424027002089100000F5090000F6
:100A900080B500AF064B19002C20064B9847064B3B
:100AA00019002D20034B9847C046BD4680BDC04667
:100AB00004002C00A908000004002D0080B500AF40
:100AC000064B1800064B9847064B40221E21180083
:100AD000054B9847C046BD4680BDC0460008004053
:100AE00001020000001C0040BB01000080B500AF07
:100AF000074B9847074B9847074B98470200074911
:100B0000074B1800074B9847C046BD4680BDC046FE
:100B1000BD0A0000910A0000D92C000000300042FC
:100B200050270020ED0E000080B500AF214B984704
:100B300001211420204B9847012114201F4B984776
:100B400001235B42190014201D4B984701211520F9
:100B5000194B984701211520184B984701235B42F8
:100B600019001520164B984700212E20154B984749
:100B700002212E20104B984701235B4219002E20A2
:100B80000F4B984700212F200E4B984702212F2012
:100B9000094B984701235B4219002F20084B9847C7
:100BA000094B9847094B9847094B9847C046BD46A3
:100BB00080BDC0464D090000CD0800006D08000052
:100BC000A90800000D090000B90900005D0A000035
:100BD000ED0A000080B584B000AFF860B9607A60BB
:100BE000FB68002B04D0BB68002B01D0012300E080
:100BF00000231A1C01231340DBB2084939221800D4
:100C0000074B9847FB68BA6811001800054B9847D6
:100C100003001800BD4604B080BDC046F85D00006A
:100C200031130000291A000080B582B000AF78604F
:100C30000A00FB1C1A707B685A1E9341DBB20849FC
:100C40004E221800074B98477A68FB1C1B78190046
:100C50001000054B984700231800BD4602B080BD28
:100C6000F85D0000311300007D1A000080B582B0ED
:100C700000AF78600A00FB1C1A707B685A1E934113
:100C8000DBB2084959221800074B98477A68FB1CC9
:100C90001B7819001000054B984700231800BD462B
:100CA00002B080BDF85D000031130000A11A000001
:100CB00090B587B000AFF86008007A6019000B2388
:100CC000FB18021C1A700823FB180A1C1A80162332
:100CD000FB1800221A80FB68002B09D07B68002BD0
:100CE00006D00823FB181B88002B01D0012300E04D
:100CF00000231A1C01231340DBB23A496722180073
:100D0000394B9847FB681522BC181800374B984799
:100D1000030023700823FB181A881523FB18197881
:100D2000334B100098470B005A425341DBB22D4918
:100D3000692218002C4B9847FB6818002D4B9847E8
:100D4000C046FA680B23FB181B78190010002A4BC9
:100D5000984703001A0001235340DBB2002BF0D167
:100D6000FA681223FC180B23FB181B7819001000DB
:100D7000224B9847030023801623FB181B887A68B0
:100D8000D3181222BA181288D2B21A701523FB187F
:100D90001B78012B0CD91623FB181B8801337A68AA
:100DA000D3181222BA181288120A92B2D2B21A704A
:100DB0001523FB181B7899B21623FB181622BA18B4
:100DC00012888A181A801623FA180823FB1812882A
:100DD0001B889A42B0D31623FB181B881800BD4607
:100DE00007B090BDF85D000031130000C51A000087
:100DF000B11C0000191B0000F11A0000391B000093
:100E000080B584B000AF7860EFF31083FB60FA68C0
:100E10007B681A6072B6BFF35F8FC046BD4604B0F0
:100E200080BD80B584B000AF7860BFF35F8F7B6812
:100E30001B68FB60FB6883F31088C046BD4604B0A6
:100E400080BD000080B584B000AFF860B960BB1D04
:100E50001A80FB68002B04D0BB68002B01D0012353
:100E600000E000231A1C01231340DBB2084934229E
:100E70001800084B9847FB681B68BA1D1288B968B0
:100E8000F868984703001800BD4604B080BDC0460E
:100E9000145E00003113000080B584B000AFF8602C
:100EA000B960BB1D1A80FB68002B04D0BB68002B07
:100EB00001D0012300E000231A1C01231340DBB200
:100EC00008493D221800084B9847FB685B68BA1D2B
:100ED0001288B968F868984703001800BD4604B046
:100EE00080BDC046145E00003113000080B584B0A0
:100EF00000AFF860B9607A60FB68002B04D0BB6873
:100F0000002B01D0012300E000231A1C0123134011
:100F1000DBB20B49332218000A4B9847FB68BA68CA
:100F200011001800084B9847FB68084A1A60FB68D4
:100F3000074A5A6000231800BD4604B080BDC04671
:100F4000285E000031130000F52800003D1000006D
:100F50006310000080B582B000AF78607B685A1ED5
:100F60009341DBB20B494A2218000B4B98477B6830
:100F700018000A4B9847031E02D011235B4204E07D
:100F80007B681800064B984700231800BD4602B046
:100F900080BDC046285E000031130000B92C00005F
:100FA0005D2B000080B582B000AF78607B685A1E70
:100FB0009341DBB20D49582218000D4B98477B68CE
:100FC00018000C4B984703001A0001235340DBB272
:100FD000002B02D011235B4204E07B681800064B13
:100FE000984700231800BD4602B080BD285E00006F
:100FF00031130000B92C00007D2B000080B584B0B7
:1010000000AFF860B9607A60FB685A1E9341DBB2AA
:1010100007497C221800074B9847FB687A68B96833
:101020001800054B984700231800BD4604B080BD4A
:10103000285E0000311300009D2B000080B584B0B5
:1010400000AF78607B68FB60FB685B69002B04D0B5
:10105000FB685B69FA6810009847C046BD4604B05B
:1010600080BD80B584B000AF78607B68FB60FB68B2
:101070009B69002B04D0FB689B69FA6810009847B5
:10108000C046BD4604B080BD80B586B000AFF860F4
:10109000B9607A60FB68002B04D0BB68002B01D0DC
:1010A000012300E000231A1C01231340DBB20F4987
:1010B000342218000E4B9847FB680833BA681100B9
:1010C00018000C4B984703007B617B69002B01D013
:1010D0007B6906E0FB68084A5A60FB68074A1A60A9
:1010E00000231800BD4606B080BDC046405E00002B
:1010F000311300002122000095120000C1110000F0
:1011000080B582B000AF78607B685A1E9341DBB235
:10111000074953221800074B98477B68083318008B
:10112000054B984700231800BD4602B080BDC0465D
:10113000405E0000311300006122000080B582B0E3
:1011400000AF786039607B68002B04D03B68002BCF
:1011500001D0012300E000231A1C01231340DBB25D
:10116000064969221800064B98477A683B681A605E
:1011700000231800BD4602B080BDC046405E00009E
:101180003113000080B582B000AF78607B685A1ED2
:101190009341DBB20749D7221800074B98477B6879
:1011A00008331800054B984703001800BD4602B0ED
:1011B00080BDC046405E00003113000011230000D6
:1011C00080B586B000AFF860B960BB1D1A800023FF
:1011D0007B61FB683B61FB68002B08D0BB68002B80
:1011E00005D0BB1D1B88002B01D0012300E000238C
:1011F0001A1C01231340DBB22149F1221800214BB4
:101200009847C0463B69083318001F4B98470300B6
:101210001A0001235340DBB2002BF3D13B690833A2
:101220001800BA687B69D3181B781900174B9847C8
:10123000C0463B6908331800134B984703001A0057
:1012400001235340DBB2002BF3D17B6901337B6177
:10125000BB1D1B887A699A42E0D3C0463B690833BC
:1012600018000B4B984703001A0001235340DBB2D0
:10127000002BF3D17B691800BD4606B080BDC04687
:10128000405E000031130000D122000081220000E6
:10129000F122000090B587B000AFF860B960BB1DC7
:1012A0001A8000237B61FB683B61FB68002B08D040
:1012B000BB68002B05D0BB1D1B88002B01D0012370
:1012C00000E000231A1C01231340D8B286235A00E1
:1012D000134B1900134B9847C0463B69083318005D
:1012E000114B984703001A0001235340DBB2002B37
:1012F000F3D1BA687B69D4183B69083318000B4BEB
:101300009847030023707B6901337B61BB1D1B88F9
:101310007A699A42E0D37B691800BD4607B090BD58
:10132000405E00003113000011230000AD220000D8
:1013300080B584B000AFB9607A600F23FB18021C3F
:101340001A700F23FB181B7801225340DBB2002BCD
:1013500000D000BEC046BD4604B080BD80B582B09E
:1013600000AF78600A00BB1C1A80C0467B681B8CEB
:101370009BB2BA1C128813409BB2002BF6D1C04618
:10138000BD4602B080BD80B582B000AF78600A0073
:10139000BB1C1A807B681B8C9BB2BA1C1288134042
:1013A0009BB25A1E9341DBB21800BD4602B080BD0D
:1013B00080B582B000AF78607B689B79DBB21A00A1
:1013C000012313405A1E9341DBB21800BD4602B000
:1013D00080BD80B582B000AF78607B689B8C9BB28B
:1013E0001800BD4602B080BD80B582B000AF786005
:1013F0007B681B78DBB202221343DAB27B681A7077
:101400007B6803211800034B9847C046BD4602B0D5
:1014100080BDC0465D13000080B582B000AF78602B
:101420007B681B78DBB202229343DAB27B681A70C6
:101430007B6803211800034B9847C046BD4602B0A5
:1014400080BDC0465D13000080B584B000AF7860F9
:101450000A00FB1C1A707B68032118000B4B98478D
:101460000F23FB187A6812781A700F23FB180F22CB
:10147000BA18F91C127809780A401A700F23FB1861
:101480001B781800BD4604B080BDC0465D13000047
:1014900080B582B000AF78600A00FB1C1A707B68D0
:1014A000FA1C12781A707B6803211800024B9847C7
:1014B000C046BD4602B080BD5D13000080B582B05D
:1014C00000AF78600A00FB1C1A707B68FA1C127867
:1014D0005A70C046BD4602B080BD80B582B000AF34
:1014E00078600A00FB1C1A707B68FA1C12789A70EC
:1014F000C046BD4602B080BD80B582B000AF786006
:101500000A00FB1C1A707B68FA1C1278DA70C0465D
:10151000BD4602B080BD000080B582B000AF7860EB
:101520000A00BB1C1A807B68BA1C12881A81054A03
:101530007B6811001800044B9847C046BD4602B0B6
:1015400080BDC046FF0700005D13000080B584B079
:1015500000AF78600E23FB187A6852891A800E2338
:10156000FB181B881B099AB20E23FB1803210A40A3
:101570001A800E23FB181B881800BD4604B080BDDE
:1015800080B582B000AF78600A00BB1C1A807B680F
:10159000BA1C12885A81054A7B6811001800044B56
:1015A0009847C046BD4602B080BDC046FF07000058
:1015B0005D13000080B582B000AF78600A00FB1CAC
:1015C0001A707B68FA1C12781A73054A7B6811003E
:1015D0001800044B9847C046BD4602B080BDC046C7
:1015E000FF0700005D13000080B582B000AF786097
:1015F0000A00FB1C1A707B68FA1C12785A73054AA1
:101600007B6811001800044B9847C046BD4602B0E5
:1016100080BDC046FF0700005D13000080B582B0AA
:1016200000AF78600A00BB1C1A807B68BA1C128865
:10163000DA817B6840211800024B9847C046BD46BE
:1016400002B080BD5D13000080B582B000AF78604D
:101650000A00BB1C1A807B68BA1C12881A827B683D
:1016600080211800024B9847C046BD4602B080BD9D
:101670005D13000080B582B000AF78600A00BB1C2B
:101680001A807B68BA1C12885A8280235A007B68B1
:1016900011001800024B9847C046BD4602B080BDFD
:1016A0005D13000080B582B000AF78600A00BB1CFB
:1016B0001A807B68BA1C12889A8280239A007B6801
:1016C00011001800024B9847C046BD4602B080BDCD
:1016D0005D13000080B582B000AF78607B681B7E30
:1016E000DBB202221343DAB27B681A76044A7B68C3
:1016F00011001800034B9847C046BD4602B080BD9C
:10170000FF0700005D13000080B582B000AF786075
:101710000A00FB1C1A707B68FA1C12781A77C04604
:10172000BD4602B080BD80B582B000AF7860396040
:101730007B683A689A62C046BD4602B080BD000030
:1017400080B582B000AF78607B68044A94466344F9
:101750009B0ADBB21800BD4602B080BD00BCFFBDD5
:1017600090B585B000AF78607B680E22BC18180079
:10177000184B9847030023700F23FB1800221A70A0
:1017800018E00F23FB181A7813491300DB009B1A8B
:101790009B005B5C0E22BA1812789A4203D10F2389
:1017A000FB181B7812E00F23FB181A780F23FB1885
:1017B00001321A700F23FB181B78002BE1D0074B66
:1017C0008D2219000020064B984700231800BD46C3
:1017D00005B090BD411700005C5E0000785E00001F
:1017E0003113000080B582B000AF78600A00FB1CA6
:1017F0001A707B6801211800784B984703001A0083
:1018000001235340DBB2002B14D07B680221180067
:10181000734B9847031E08D07B681800714B98479C
:101820007B6802211800704B98477B6801211800E3
:101830006E4B98477B68012118006B4B9847FB1C47
:101840001A786B491300DB009B1A9B00CB180233FC
:101850001A787B6811001800664B9847FB1C1A78B1
:1018600063491300DB009B1A9B00CB1803331A78E3
:101870007B6811001800604B9847FB1C1A785C4984
:101880001300DB009B1A9B00CB1804331A787B688B
:1018900011001800594B9847FB1C1A785449130043
:1018A000DB009B1A9B00CB1806331A887B6811005B
:1018B0001800534B9847FB1C1A784D491300DB0066
:1018C0009B1A9B00CB1808331A887B6811001800FC
:1018D0004C4B9847FB1C1A7845491300DB009B1AB8
:1018E0009B00CB180A331A787B6811001800464B0E
:1018F0009847FB1C1A783E491300DB009B1A9B009B
:10190000CB180B331A787B68110018003F4B9847AF
:10191000FB1C1A7836491300DB009B1A9B00CB187E
:101920000C331A887B6811001800394B9847FB1C50
:101930001A782F491300DB009B1A9B00CB180E333B
:101940001A887B6811001800324B9847FB1C1A78E4
:1019500027491300DB009B1A9B00CB1810331A8811
:101960007B68110018002C4B9847FB1C1A78204903
:101970001300DB009B1A9B00CB1812331A887B687C
:1019800011001800254B9847FB1C1A7818491300C2
:10199000DB009B1A9B00CB1814331A787B6811006C
:1019A00018001F4B984700227B68110018001D4B40
:1019B0009847FB1C1A780E491300DB009B1A9B000A
:1019C000CB1801331A787B6811001800074B984731
:1019D00000231800BD4602B080BDC046871300003A
:1019E00049140000191400005D1300009114000058
:1019F0005C5E0000BD140000DB140000F914000060
:101A00001915000081150000B5150000E91500004A
:101A10001D1600004916000075160000A5160000EE
:101A2000091700002717000080B582B000AF78606A
:101A300039607B685A1E9341DBB20C49D4221800EE
:101A40000B4B98477B683A681A603B681800094B53
:101A5000984703001A003B6811001800064B98478E
:101A600003001800BD4602B080BDC046785E00008D
:101A70003113000061170000E517000080B582B047
:101A800000AF78600A00FB1C1A707B681B681800A6
:101A9000024B9847C046BD4602B080BDE913000026
:101AA00080B582B000AF78600A00FB1C1A707B68BA
:101AB0001B681800024B9847C046BD4602B080BD67
:101AC0001914000080B582B000AF78607B681B6895
:101AD0001800064B98470300032B01D1012300E0B7
:101AE00002231800BD4602B080BDC0464D1500005F
:101AF00080B582B000AF78600A00FB1C1A707B686A
:101B00001B681800034B984703001800BD4602B03D
:101B100080BDC046B113000080B582B000AF7860D0
:101B20007B681B681800034B9847C046BD4602B04F
:101B300080BDC046D516000080B582B000AF786089
:101B40000A00FB1C1A707B681B681800034B98473F
:101B500003001800BD4602B080BDC046D31300008C
:101B600080B500AF00231800BD4680BD80B582B0AF
:101B700000AF786039607B685A683B685B001E2163
:101B80000B401A437B685A60C046BD4602B080BD18
:101B900080B500AF0A4B002118000A4B98470A4B4A
:101BA00098470A4B98470A4B98470A4B9847FF209B
:101BB000094B9847094B9847C046BD4680BDC04673
:101BC000004000416D1B00003D1E0000811F000011
:101BD000C51D0000FD1F00005D1D0000951C0000DC
:101BE00080B584B000AF78600A00FB1C1A700F2328
:101BF000FB187A6812781A700F23FB180F22BA1894
:101C0000127802218A431A70FB1C1B785B005AB2BF
:101C10000F23FB181B785BB213435AB20F23FB1838
:101C20001A707B680F22BA1812781A70C046BD4627
:101C300004B080BD80B584B000AFB9607A600F2376
:101C4000FB18021C1A709023DA050F23FB181B786F
:101C500001210B40D9B213780120084001218B43A8
:101C6000191C031C0B4313709023DB05BA689A60A0
:101C70009023DB057A68DA60C0469023DB051B7988
:101C8000DB07DB0FDBB2002BF7D1C046BD4604B04B
:101C900080BD000080B500AF9023DB050021180057
:101CA000024B9847C046BD4680BDC046E11B0000C0
:101CB00090B589B000AF78603960EFF310833B6175
:101CC0003B69FB6072B67B683A6819000120094BDA
:101CD0009847094B5C681B68BB61FC61FB687B61D2
:101CE0007B6983F31088BB69FC6918002100BD463D
:101CF00009B090BD351C00001000004880B582B0CE
:101D000000AF78603960C0467B685B683A68134012
:101D1000FAD1C046BD4602B080BD000080B584B097
:101D200000AFF8607A600B23FB180A1C1A700B23B3
:101D3000FB181A78FB68083292007968D150054A7E
:101D4000FB6811001800044B9847C046BD4604B01C
:101D500080BDC046FD070000FD1C000080B582B0BC
:101D600000AF78607B680122134005D0094A0A4B16
:101D700000211800094B98477B680422134005D0C6
:101D8000074A054B02211800044B9847C046BD4640
:101D900002B080BD06010100001C00401D1D0000B6
:101DA0000301010080B582B000AF78600A00FB1C1F
:101DB0001A707B68FA1C12781A71C046BD4602B0D0
:101DC00080BD000080B582B000AF054B7B607B68B2
:101DD00001211800034B9847C046BD4602B080BDA4
:101DE00000080040A51D000080B582B000AF7860FB
:101DF00039607B683A681A61C046BD4602B080BD52
:101E000080B584B000AF78607B68DB69FB60FB68FD
:101E10001B0A1F221340FB60FB681800BD4604B07C
:101E200080BD80B582B000AF786039607B683A6869
:101E3000DA61C046BD4602B080BD000080B582B008
:101E400000AF104B7B60BB1C00221A807B6818001F
:101E50000D4B98470200BB1C1A80BB1C1B881B0241
:101E60001A00F8235B011A407B6811001800074B29
:101E700098477B6800211800054B9847C046BD462F
:101E800002B080BD00140040011E0000231E0000AF
:101E9000E91D000080B582B000AF78603960C046AF
:101EA0007B689B693A681340FAD1C046BD4602B0D0
:101EB00080BD80B582B000AF78607B68DB681B09AD
:101EC000012213405A1E9341DBB21800BD4602B0F6
:101ED00080BD80B582B000AF78607B689B699B084D
:101EE000012213405A1E9341DBB21800BD4602B0D6
:101EF00080BD80B582B000AF78607B681B7DDBB2AF
:101F0000802252421343DAB27B681A75C046BD463E
:101F100002B080BD80B582B000AF78600A00FB1CC3
:101F20001A707B68FA1C12781A75C046BD4602B05A
:101F300080BD000080B582B000AF78600A00FB1C55
:101F40001A707B68FA1C12785A757B680421180095
:101F5000024B9847C046BD4602B080BD951E0000AA
:101F600080B582B000AF78600A00FB1C1A707B68F5
:101F7000FA1C12789A75C046BD4602B080BD0000BA
:101F800080B582B000AF164B7B607B6802211800E1
:101F9000144B98477B680B211800134B9847C04699
:101FA0007B681800114B9847031EF9D17B68072105
:101FB00018000F4B9847C0467B6818000D4B984798
:101FC00003001A0001235340DBB2002BF4D17B68DD
:101FD0001800094B9847C046BD4602B080BDC046B8
:101FE00000100040151F0000351F0000D31E000028
:101FF000611F0000B31E0000F31E000080B582B018
:1020000000AF034B7B60C046BD4602B080BDC046FA
:102010000010004080B582B000AF78603960C046E3
:102020007B68DB693A681340FAD1C046BD4602B00E
:1020300080BD80B582B000AF786039607B68DB69B5
:102040003A6813405A1E9341DBB21800BD4602B0F5
:1020500080BD80B582B000AF78607B681B7EDBB24C
:102060001A00012313405A1E9341DBB21800BD46EB
:1020700002B080BD80B582B000AF78607B681B7E07
:10208000DBB25B08012213405A1E9341DBB21800F9
:10209000BD4602B080BD80B582B000AF78607B687D
:1020A0001B7EDBB29B08012213405A1E9341DBB218
:1020B0001800BD4602B080BD80B582B000AF786028
:1020C0007B681B6802221A437B681A607B680321C5
:1020D0001800034B9847C046BD4602B080BDC046BD
:1020E0001520000080B582B000AF78607B681B6867
:1020F000022293431A007B681A607B680321180050
:10210000024B9847C046BD4602B080BD1520000076
:1021100080B584B000AF786039607B680321180017
:10212000064B98477B681B68FB60FB683A68134066
:10213000FB60FB681800BD4604B080BD15200000A0
:1021400080B582B000AF786039607B683A681A6009
:102150007B6803211800034B9847C046BD4602B078
:1021600080BDC0461520000080B582B000AF786009
:1021700039607B683A685A607B6807211800034B16
:102180009847C046BD4602B080BDC046152000003D
:1021900080B582B000AF78600A00BB1C1A807B68F3
:1021A000BA1C12889A81C046BD4602B080BD80B577
:1021B00082B000AF78600A00FB1C1A707B68FA1CC2
:1021C00012789A73C046BD4602B080BD80B582B019
:1021D00000AF78600A00BB1C1A807B68BA1C1288AA
:1021E0001A85C046BD4602B080BD80B582B000AF42
:1021F00078607B681B8D9BB21800BD4602B080BD25
:1022000080B582B000AF78600A00FB1C1A707B6852
:10221000FA1C302112785A54C046BD4602B080BD27
:1022200080B582B000AF786039607B685A1E9341F8
:10223000DBB20849B4221800074B98477B683A681C
:102240001A603B681800054B984703001800BD460C
:1022500002B080BD905E000031130000D923000061
:1022600080B582B000AF78607B681B681800034BB4
:102270009847C046BD4602B080BDC046B9200000A8
:1022800080B582B000AF78600A00FB1C1A707B68D2
:102290001A68FB1C1B789BB219001000024B984770
:1022A000C046BD4602B080BDCD21000080B582B0E1
:1022B00000AF78607B681B681800044B98470300E8
:1022C000DBB21800BD4602B080BDC046EB21000065
:1022D00080B582B000AF78607B681B681800034B44
:1022E000984703001800BD4602B080BD532000008F
:1022F00080B582B000AF78607B681B681800034B24
:10230000984703001800BD4602B080BD752000004C
:1023100080B582B000AF78607B681B681800034B03
:10232000984703001800BD4602B080BD972000000A
:1023300080B582B000AF78607B68044A94466344FD
:102340009B0ADBB21800BD4602B080BD00FCFFBD99
:1023500090B585B000AF78600E23FC187B6818003C
:10236000184B9847030023700F23FB1800221A70A4
:1023700018E00F23FB181A78134913009B009B18D1
:102380009B005B5C0E22BA1812789A4203D10F238D
:10239000FB181B7812E00F23FB181A780F23FB1889
:1023A00001321A700F23FB181B78002BE1D0074A6B
:1023B000074B19000020074B984700231800BD4623
:1023C00005B090BD31230000000000203A0200005B
:1023D000905E00003113000090B585B000AF7860CA
:1023E0000F23FC187B6818006F4B9847030023707D
:1023F0007B68012118006D4B984703001A000123E8
:102400005340DBB2002B25D00F23FB181A78684904
:1024100013009B009B189B00CB1804331B681C22E5
:102420001340BB607B6802211800624B9847031E73
:1024300008D07B681800604B98477B680221180021
:102440005E4B9847BB6801221A437B681100180055
:102450005B4B98477B6801211800584B98470F2326
:10246000FB181A78524913009B009B189B00CB184D
:1024700004331A687B6811001800514B98470F23EA
:10248000FB181A784A4913009B009B189B00CB1835
:1024900008331A687B68110018004A4B98470F23CD
:1024A000FB181A78424913009B009B189B00CB181D
:1024B00004331A6880239B0113400ED10F23FB18AD
:1024C0001A783B4913009B009B189B00CB180433E0
:1024D0001A68C023DB01134030D00F23FB181A7891
:1024E000334913009B009B189B00CB180C331B88AF
:1024F000DB04DB0C99B27A689389C904C80C5B0BC6
:102500005B03191C031C0B4393810F23FB181A78E0
:10251000274913009B009B189B00CB180E331B7898
:102520001A1C07231340D9B27A6893894803DB0445
:10253000DB0C191C031C0B4393810FE00F23FB18CA
:102540001A781B4913009B009B189B00CB180C3377
:102550001A887B68110018001B4B98470F23FB1843
:102560001A78134913009B009B189B00CB180F335C
:102570001A787B6811001800144B98470F23FB183A
:102580001A780B4913009B009B189B00CB18103343
:102590001A787B68110018000D4B9847002318002B
:1025A000BD4605B090BDC046512300003320000059
:1025B0000000002011210000E5200000152000008F
:1025C000412100006921000091210000AF2100009D
:1025D0000122000080B582B000AF0200FB1D1A701E
:1025E000FB1D1B787F2B09D8064BFA1D12781100B2
:1025F0001F220A40012191400A001A60C046BD46D0
:1026000002B080BD00E100E080B582B000AF020002
:10261000FB1D1A70FB1D1B787F2B0ED80949FB1D73
:102620001B781A001F23134001229A4013008022B6
:102630008B50BFF34F8FBFF36F8FC046BD4602B0C4
:1026400080BDC04600E100E080B582B000AF02006E
:10265000FB1D1A70FB1D1B787F2B0AD80749FB1D39
:102660001B781A001F23134001229A40C0235B00ED
:10267000CA50C046BD4602B080BDC04600E100E081
:1026800080B582B000AF78603960C0467B681B6956
:102690003A681340FAD1C046BD4602B080BD80B54D
:1026A00082B000AF786039607B681B693A6813407C
:1026B0005A1E9341DBB21800BD4602B080BD80B502
:1026C00082B000AF78607B689B7ADBB21A0001238E
:1026D00013405A1E9341DBB21800BD4602B080BDC4
:1026E00080B582B000AF78607B6801229A72C046E4
:1026F000BD4602B080BD80B582B000AF78607B6817
:1027000002229A72C046BD4602B080BD80B582B03A
:1027100000AF78607B685B7ADBB25B080122134014
:102720005A1E9341DBB21800BD4602B080BD0000C6
:1027300080B582B000AF78607B681B6802221A43C4
:102740007B681A607B6803211800034B9847C046DA
:10275000BD4602B080BDC0468126000080B584B071
:1027600000AF78607B6803211800094B98477B68AD
:102770001B68FB60FB685B0801221340FB60FB6881
:102780005A1E9341DBB21800BD4604B080BDC0465E
:102790008126000080B582B000AF78607B681B683E
:1027A000022293431A007B681A607B680321180099
:1027B000024B9847C046BD4602B080BD812600004E
:1027C00080B584B000AF786039607B680321180061
:1027D000064B98477B681B68FB60FB683A681340B0
:1027E000FB60FB681800BD4604B080BD8126000078
:1027F00080B582B000AF786039607B683A681A6053
:102800007B6803211800034B9847C046BD4602B0C1
:1028100080BDC0468126000080B582B000AF7860E0
:102820000A00BB1C1A807B68BA1C1288DA80C0467A
:10283000BD4602B080BD80B582B000AF78600A00AE
:10284000FB1C1A707B68FA1C12781A73C046BD46CE
:1028500002B080BD80B582B000AF78600A00FB1C7A
:102860001A707B68FA1C1278DA73C046BD4602B053
:1028700080BD000080B582B000AF78600800110014
:10288000FB1C021C1A703B000A1C1A80FB1C1B78E4
:102890007A680C335B00D31804333A0012881A802C
:1028A0007B68C0211800034B9847C046BD4602B064
:1028B00080BDC0468126000080B584B000AFF860BE
:1028C0007A600B23FB180A1C1A700B23FB181B7869
:1028D000FA6806339B00D31804337A681A60FB68E1
:1028E000C0211800024B9847C046BD4604B080BDC9
:1028F0008126000090B585B000AF786039600F2365
:10290000FC183B681800854B9847030023707B68D0
:102910003A681A613B6801211800814B984703000F
:102920001A0001235340DBB2002B14D03B68022174
:1029300018007C4B9847031E08D03B6818007A4B60
:1029400098473B6802211800784B98473B68012163
:102950001800774B98473B6801211800734B984744
:102960000F23FB1800229A56724913009B009B18F4
:102970009B00CB1804331A683B68110018006C4B9D
:1029800098470F23FB1800229A566A4913009B00B0
:102990009B189B00CB180A331A783B68110018006B
:1029A000654B98470F23FB1800229A566149130084
:1029B0009B009B189B00CB1808331A883B681100BA
:1029C00018005E4B98473B68032118005C4B984702
:1029D0000F23FB1800229A56564913009B009B18A0
:1029E0009B00CB1804331B680C221340082B22D108
:1029F0000F23FB1800229A564E4913009B009B1888
:102A00009B00CB180C331A683B68002118004D4B13
:102A100098470F23FB1800229A56464913009B0043
:102A20009B189B00CB1810331A683B6801211800D3
:102A3000444B984736E00F23FB1800229A563D4935
:102A400013009B009B189B00CB1804331B680C22BF
:102A5000134024D10F23FB1800229A563549130046
:102A60009B009B189B00CB180C331B689AB23B68E9
:102A700000211800344B98470F23FB1800229A5668
:102A80002C4913009B009B189B00CB1810331B682C
:102A90009AB23B68012118002B4B984702E00123B2
:102AA0005B4236E07A683B6811001800274B984774
:102AB0000F23FB1800229A561E4913009B009B18F7
:102AC0009B00CB1801331B785BB21800204B984752
:102AD0000F23FB1800229A56164913009B009B18DF
:102AE0009B00CB1801331B785BB21800194B984739
:102AF0000F23FB1800229A560E4913009B009B18C7
:102B00009B00CB1801331B785BB21800124B98471F
:102B100000231800BD4605B090BDC046752D0000CD
:102B20009F260000C1270000952700008126000095
:102B3000F12700001400002055280000192800008B
:102B400037280000B928000075280000012E000079
:102B50000926000049260000D525000080B582B076
:102B600000AF78607B681B691800034B9847C0462C
:102B7000BD4602B080BDC0463127000080B582B09E
:102B800000AF78607B681B691800034B9847C0460C
:102B9000BD4602B080BDC0469527000090B587B005
:102BA00000AFF860B9607A60FB681B697B61132332
:102BB000FC187B6918003C4B9847030023701323D3
:102BC000FB1800229A56394913009B009B189B0062
:102BD000CB180C33BA681A601323FB1800229A56DC
:102BE000324913009B009B189B00CB1810337A6866
:102BF0001A601323FB1800229A562C4913009B00DD
:102C00009B189B00CB1804331B680C221340082B25
:102C100022D11323FB1800229A56244913009B004B
:102C20009B189B00CB180C331A687B690021180095
:102C30001F4B98471323FB1800229A561B49130079
:102C40009B009B189B00CB1810331A687B690121ED
:102C50001800174B984723E01323FB1800229A56BD
:102C6000124913009B009B189B00CB180C331B6868
:102C70009AB27B69002118000E4B98471323FB186A
:102C800000229A56094913009B009B189B00CB1801
:102C900010331B689AB27B6901211800054B9847D5
:102CA000C046BD4607B090BD752D00001400002041
:102CB000B92800007528000080B582B000AF7860A8
:102CC0007B681B691800034B984703001800BD463A
:102CD00002B080BD5D27000080B500AF0023180062
:102CE000BD4680BD80B584B000AF78607B681B694D
:102CF000FB60FB681800144B9847031E0CD0FB6860
:102D00001800124B98477B681B68002B04D07B6827
:102D10001B687A6810009847FB6818000C4B9847AE
:102D2000031E0CD0FB6818000A4B98477B685B6851
:102D3000002B04D07B685B687A6810009847C04617
:102D4000BD4604B080BDC046BF260000E12600009D
:102D50000D270000F726000080B500AF034B1B686D
:102D60001800034B9847C046BD4680BD4800002070
:102D7000E52C000090B585B000AF78600E23FC18FC
:102D80007B6818001A4B9847030023700F23FB1829
:102D900000221A7019E00F23FB181A781549130046
:102DA0009B009B189B005B5C0E22BA1812789A421B
:102DB00004D10F23FB181B785BB214E00F23FB1820
:102DC0001A780F23FB1801321A700F23FB181B7897
:102DD000002BE0D0A9235A00074B19000020074B15
:102DE000984701235B421800BD4605B090BDC04620
:102DF000292E000014000020C05E000031130000E6
:102E000080B582B000AF786039607B68044A934235
:102E100002D1044B3A681A60C046BD4602B080BD7C
:102E2000003000424800002080B582B000AF7860DA
:102E30007B68074A934201D1042305E07B68054A79
:102E4000944663449B0ADBB21800BD4602B080BDC5
:102E50000040004200D0FFBD80B500AF024B984754
:102E6000024B9847FEE7C0461D01000051340000A8
:102E700080B582B000AF78600A00FB1C1A70FB1CA2
:102E80001A787B68D201D3581800BD4602B080BDC5
:102E900080B584B000AFF8607A600B23FB180A1C81
:102EA0001A700B23FB181B78FA68DB01D318183350
:102EB0007A681A60C046BD4604B080BD80B582B055
:102EC00000AF78600A00FB1C1A70FB1C1B787A6844
:102ED000DB01D31810331B681800BD4602B080BD5B
:102EE00080B584B000AFF8607A600B23FB180A1C31
:102EF0001A700B23FB181B78FA68DB01D318143304
:102F00007A681A60C046BD4604B080BD80B584B002
:102F100000AFF8607A600B23FB180A1C1A700B23B1
:102F2000FB181B78FA68DB01D3181C337A681A6027
:102F3000C046BD4604B080BD80B582B000AF7860A9
:102F40000A00FB1C1A70FB1C1B787A68DB01D31883
:102F500020331B681800BD4602B080BD80B582B02A
:102F600000AF39601100FB1D021C1A70BB1D0A1C4A
:102F70001A70BB1D1B78002B08D03A68FB1D19780E
:102F8000C023DB051800074B984707E03A68FB1D94
:102F90001978C023DB051800034B9847C046BD468F
:102FA00002B080BD912E0000E12E000080B582B0FD
:102FB00000AF02003960FB1D1A703A68FB1D1978DA
:102FC000C023DB051800034B9847C046BD4602B03E
:102FD00080BDC0460D2F000080B586B000AF020056
:102FE000FB1D1A700C23FB181800184B9847FB1D8B
:102FF0001A78C023DB0511001800154B9847030011
:103000007B61FB1D1A788223DB0511001800114B30
:10301000984702007B69DB4313403B61FB1D1A7834
:10302000C023DB05110018000B4B984702007B6999
:1030300013403A6913433B610C23FB181800074BFC
:1030400098473B691800BD4606B080BD010E0000E0
:10305000712E0000392F0000BD2E0000230E00004D
:1030600080B582B000AF0200FB1D1A70BB1D0A1CA8
:103070001A70FB1D1B785B09D8B2FB1D1B781F2241
:10308000134001229A401100BB1D1B781A00034B0C
:103090009847C046BD4602B080BDC0465D2F0000C7
:1030A00080B582B000AF0200FB1D1A70FB1D1B78BB
:1030B0005B09D8B2FB1D1B781F22134001229A40E6
:1030C00013001900024B9847C046BD4602B080BDB0
:1030D000AD2F000080B582B000AF0200FB1D1A705A
:1030E000FB1D1B785B09DBB21800094B98470100F8
:1030F000FB1D1B781F22134001229A4013000B4036
:103100005A1E9341DBB21800BD4602B080BDC046D6
:10311000D92F000080B586B000AF786000237B61B6
:10312000BB4ABC4B11001800BB4B9847B94B180069
:10313000BA4B9847BA4B73221A70B94B30225A7067
:10314000B74B00229A700320B64B98471520B64B18
:10315000984703001A0001235340DBB2002B09D12A
:103160001420B14B984703001A0001235340DBB2EF
:10317000002B02D00220AD4B9847AD4B984715204D
:10318000A94B984703001A0001235340DBB2002BE0
:1031900009D11420A44B984703001A00012353407F
:1031A000DBB2002B02D00220A04B9847A14B1B782A
:1031B000312B1FD101212F209F4B9847FA239B00D1
:1031C00018009E4B98470120984B98479C4B18003D
:1031D0009A4B98470220954B9847914B73221A704F
:1031E0008F4B31225A708E4B00229A7003208D4BE8
:1031F0009847F7E08F4B1B78322B0FD12F20914B44
:103200009847874B73221A70854B31225A70844B32
:1032100000229A700320834B9847E3E0854B1B788C
:10322000332B18D10120814B98477B69864A534341
:103230001800824B984702207C4B9847784B7322AA
:103240001A70774B31225A70754B00229A70032006
:10325000744B9847C6E0774B1B78342B4ED1012036
:10326000724B984700233B611EE06420734B9847E4
:1032700015206D4B984703001A0001235340DBB221
:10328000002B09D11420684B984703001A00012332
:103290005340DBB2002B04D00220644B9847F62346
:1032A0003B613B6901333B613B69F52BDDDD02206E
:1032B0005E4B984715205C4B984703001A0001238A
:1032C0005340DBB2002B09D0554B73221A70544B7C
:1032D00032225A70524B00229A7008E0504B7322EF
:1032E0001A704F4B31225A704D4B00229A700320B6
:1032F0004C4B98477B6901337B6173E04D4B1B78E6
:10330000352B18D10020494B9847C0461420464B16
:103310009847031EFAD10220444B9847404B732232
:103320001A703F4B31225A703D4B00229A70032095
:103330003C4B984756E03F4B1B78362B25D100235A
:10334000FB600020394B9847354B73221A70344B81
:1033500031225A70324B00229A700320314B984729
:1033600007E0334B9847334B1B78302B01D10123B7
:10337000FB6014202C4B9847031E02D0FB68002BE7
:10338000EFD00220294B98472CE02A4B1B78372B93
:1033900025D10023BB600120244B9847204B73228A
:1033A0001A701F4B31225A701D4B00229A70032055
:1033B0001C4B984707E01E4B98471E4B1B78302B41
:1033C00001D10123BB601520174B9847031E02D083
:1033D000BB68002BEFD00220144B984702E002207C
:1033E000124B9847194B98470300012B0BD10C4BFC
:1033F00073221A700A4B33225A70094B00229A70BA
:103400000320084B984764200C4B98479EE6C04623
:103410006C270020402700203D1100000111000012
:10342000D427002099340000D5300000BD360000BC
:10343000593500007027002061300000D948000095
:1034400038900000A13000002860000079370000AB
:1034500090B583B002AF0B4BDB68A02292000A4903
:103460000A480193012300930023094CA04703005D
:10347000012B00D0FEE7074B9847C046BD4601B080
:1034800090BDC0464C000020D45E00001531000005
:10349000514600003549000080B582B000AF786029
:1034A000214B1B687A6892B220491800204B98473C
:1034B0006420204B984715201F4B984703001A00A3
:1034C00001235340DBB2002B09D114201A4B98473B
:1034D00003001A0001235340DBB2002B02D002206C
:1034E000164B9847164B1800164B9847031E09D0E9
:1034F0000D4B1B68144901221800144B9847020019
:10350000134B1A6064200B4B98470F4B1B78732B9F
:10351000D1D10F4B1A680C4B110018000D4B984776
:10352000C046BD4602B080BD6C270020D4270020D5
:10353000450E0000D9480000D5300000BD3600001F
:10354000402700208511000070270020990E000000
:10355000740000204937000080B584B000AF4A4BAA
:1035600000221A600023FB60484B30221A703B1D7A
:10357000474A12881A80474B1B68391D02221800DF
:10358000454B984716E01520444B984703001A0016
:1035900001235340DBB2002B09D114203F4B984745
:1035A00003001A0001235340DBB2002B02D002209B
:1035B0003B4B98473B4B18003B4B9847031EE2D0D0
:1035C0000023BB604AE0374B1800374B9847031E77
:1035D00027D0304B1868FA682C4BD31801221900F9
:1035E000324B98470200284B1A60FB680133FB609E
:1035F0000023BB601520294B984703001A000123C4
:103600005340DBB2002B09D11420244B9847030010
:103610001A0001235340DBB2002B02D00220204BC2
:1036200098470120224B984715201C4B98470300D0
:103630001A0001235340DBB2002B09D11420174B91
:10364000984703001A0001235340DBB2002B02D03D
:103650000220134B9847BB680133BB60BB68154A17
:103660009342B0DD0023FB60084B1B78302B06D162
:10367000054B1A68054B110018000F4B9847C046C0
:10368000BD4604B080BDC0467400002070270020F5
:10369000DC5E00006C270020450E0000D5300000E5
:1036A000BD3600004027002085110000990E000063
:1036B000D9480000E70300004937000080B582B018
:1036C00000AF78607B68022B04D10C4B18000C4BC8
:1036D000984710E0094B1800094B98476420094BA4
:1036E00098477B685A1E9341DBB219002E20064B87
:1036F0009847064B9847BD4602B080BD5027002032
:10370000A50F0000D948000061300000113700000B
:1037100080B500AFC8239A00C823D900064B180013
:10372000064B9847044B1800054B98470A20054B59
:103730009847C046BD4680BD50270020FD0F0000C1
:10374000550F0000D948000080B584B000AF786004
:1037500039600023FB6007E0FB687A68D318002219
:103760001A70FB680133FB60FA683B689A42F3DB2E
:10377000C046BD4604B080BD90B585B000AF294BB2
:1037800000211800284B98473A1D264802230021A3
:10379000264CA0473B1D5B781B023A1D12781A434A
:1037A000234B1000984703000C00BB60FC601D4BCE
:1037B000002118001F4B98471F4C00221F4BB86870
:1037C000F968A047031E26D0164B00211800164B9F
:1037D00098473A1D134802230021144CA0473B1D73
:1037E0005B781B023A1D12781A43114B1000984760
:1037F00003000C00BB60FC600A4B002118000D4B5D
:1038000098470D4C00220D4BB868F968A047031E7D
:1038100003D0012301E00023FFE71800BD4605B0F7
:1038200090BDC0464C270020290C0000B10C0000C0
:10383000B15C00006D0C0000615A0000005495401E
:1038400080B582B000AF78607B6808331A007B686F
:103850005A607B68012252429A607B6808331A00E2
:103860007B68DA607B6808331A007B681A617B68C2
:1038700000221A60C046BD4602B080BD80B582B04D
:1038800000AF78607B6800221A61C046BD4602B076
:1038900080BD80B584B000AF786039607B685B68BC
:1038A000FB603B68FA685A60FB689A683B689A60FC
:1038B000FB689B683A685A60FB683A689A603B68A4
:1038C0007A681A617B681B685A1C7B681A60C0465C
:1038D000BD4604B080BD80B584B000AF786039606B
:1038E0003B681B68BB60BB68013303D17B681B6905
:1038F000FB600CE07B680833FB6002E0FB685B6800
:10390000FB60FB685B681A68BB689A42F6D9FB6883
:103910005A683B685A603B685B683A689A603B68E3
:10392000FA689A60FB683A685A603B687A681A617C
:103930007B681B685A1C7B681A60C046BD4604B091
:1039400080BD80B584B000AF78607B681B69FB6088
:103950007B685B687A6892689A607B689B687A6823
:1039600052685A60FB685A687B689A4203D17B6848
:103970009A68FB685A607B6800221A61FB681B68C2
:103980005A1EFB681A60FB681B681800BD4604B02D
:1039900080BD000080B584B000AFF860B9607A6087
:1039A000FB68043BFB60FB68802252041A60FB68E2
:1039B000043BFB60BA68FB681A60FB68043BFB6071
:1039C000084AFB681A60FB68143BFB607A68FB6876
:1039D0001A60FB68203BFB60FB681800BD4604B022
:1039E00080BDC046E939000080B582B000AF002339
:1039F0007B60074B1B68013301D072B6FEE772B6DD
:103A0000C0467B68002BFCD0C046BD4602B080BDDE
:103A10002800002080B500AFC046BD4680BD000034
:103A20000B4A13681868203080F30988022080F35D
:103A30001488BFF36F8F3FBCAE4608BC04BC62B6AF
:103A40001847C046C046C046C046C046C046C046ED
:103A500000260020C046C04680B500AF0E4B0E4A7F
:103A60001268FF2109040A431A600B4B0A4A1268C4
:103A7000FF2109060A431A60084B9847084B0022A9
:103A80001A60084B9847084B9847084B9847002303
:103A90001800BD4680BDC04620ED00E0C93B0000D7
:103AA00028000020213A0000994C0000E93900006C
:103AB00080B500AF054B802252051A60BFF34F8FCF
:103AC000BFF36F8FC046BD4680BDC04604ED00E029
:103AD00080B500AF72B6064B1B685A1C044B1A60C7
:103AE000BFF34F8FBFF36F8FC046BD4680BDC0464A
:103AF0002800002080B500AF094B1B68002B01D1C6
:103B000072B6FEE7064B1B685A1E054B1A60044B43
:103B10001B68002B00D162B6C046BD4680BDC046C2
:103B200028000020EFF3108072B67047C0461800DE
:103B300080F310887047C0460000000000000000BD
:103B4000EFF309800E4B1A6820381060F0C044462D
:103B50004D4656465F46F0C008B572B601F09CF877
:103B600062B60CBC116808681030F0C8A046A946BF
:103B7000B246BB4680F309882038F0C81847C046D3
:103B800000260020C046C04680B582B000AF0A4B78
:103B9000984703007B60094B9847031E03D0084BEE
:103BA000802252051A607B681800064B9847C04671
:103BB000BD4602B080BDC046253B0000254B00003D
:103BC00004ED00E0313B000080B500AF074B002260
:103BD0001A60074B00221A60064B074A1A60034B13
:103BE00007221A60C046BD4680BDC04610E000E016
:103BF00018E000E014E000E09F0F000080B584B002
:103C000000AF78600023FB607B680722134004D07C
:103C10007B680722934308337B60174B9847174B09
:103C20001B68002B05D1164B072293431A00134B38
:103C30001A60144B1A687B68D318134A934213D83E
:103C4000104B1A687B68D2180E4B1B689A420BD92E
:103C50000A4B1A680B4B1B68D318FB60094B1A6898
:103C60007B68D218074B1A60084B9847FB6818000E
:103C7000BD4604B080BDC046BD490000FC25002003
:103C800080000020F825002077250000D54900009D
:103C900080B582B000AF78607B68002B01D072B62F
:103CA000FEE7C046BD4602B080BD000080B584B0CE
:103CB00000AF786039607B68FB60FB68002B01D146
:103CC00072B6FEE7234B9847FB681A68FB68D96B0E
:103CD000FB681B6C4B43D218FB685A60FB680022E0
:103CE0009A63FB681A68FB689A60FB681A68FB684D
:103CF000DB6B591EFB681B6C4B43D218FB68DA6008
:103D0000FB684422FF219954FB684522FF21995406
:103D10003B68002B0DD1FB681B69002B13D0FB689F
:103D2000103318000C4B9847031E0CD00B4B9847D0
:103D300009E0FB6810331800094B9847FB682433EF
:103D40001800074B9847074B984701231800BD46BA
:103D500004B080BDD13A0000D54D0000B13A00005A
:103D600041380000F53A000090B58BB002AFF86022
:103D7000B960FB1D1A70FB68002B01D172B6FEE71B
:103D8000BB68002B02D10023FB6103E0FB68BA682B
:103D90005343FB61FB69543318000C4B98470300F5
:103DA000BB61BB69002B0CD0BB6954337B61FB1D2D
:103DB0001C787A69B968F868BB6900932300044CE1
:103DC000A047BB691800BD4609B090BDFD3B00008F
:103DD000D53D000080B584B000AFF860B9607A606E
:103DE0001A00FB1C1A70BB68002B03D1BB69BA69AF
:103DF0001A6002E0BB697A681A60BB69FA68DA6324
:103E0000BB69BA681A64BB6901211800064B984760
:103E1000BB69FA1C502112785A54BB6900229A647B
:103E2000C046BD4604B080BDAD3C000080B58AB040
:103E300000AFF860B9607A603B6000237B62FB688A
:103E40003B623B6A002B01D172B6FEE7BB68002BD8
:103E500003D13B6A1B6C002B01D1012300E000233E
:103E6000002B01D172B6FEE73B68022B03D13B6AFF
:103E7000DB6B012B01D1012300E00023002B01D1DA
:103E800072B6FEE7534B9847031E02D17B68002BA6
:103E900001D1012300E00023002B01D172B6FEE71F
:103EA0004D4B98473B6A9A6B3B6ADB6B9A4202D355
:103EB0003B68022B2DD13A68B9683B6A1800474B22
:103EC00098470300FB613B6A9B6C002B0AD03A6861
:103ED0003B6A11001800424B9847031E15D0414B16
:103EE000984712E03B6A5B6A002B09D03B6A243397
:103EF00018003D4B9847031E07D03A4B984704E003
:103F0000FB69002B01D0374B9847384B984701236A
:103F10005CE07B68002B03D1344B9847002355E0CD
:103F20007B6A002B06D11423FB181800304B9847EE
:103F300001237B622D4B98472E4B9847264B984781
:103F40003B6A44229B5C5BB2013303D13B6A44224F
:103F5000002199543B6A45229B5C5BB2013303D13B
:103F60003B6A452200219954204B98473A1D14235F
:103F7000FB1811001800204B9847031E1FD13B6A05
:103F800018001E4B9847031E12D03B6A10337A6804
:103F9000110018001A4B98473B6A1800194B9847B4
:103FA000194B9847031E00D07AE70E4B984777E7E6
:103FB0003B6A1800134B9847134B984770E73B6ACE
:103FC0001800104B9847104B984700231800BD4627
:103FD0000AB080BD0D510000D13A0000CD42000072
:103FE000AD450000B13A0000D54D0000F53A0000A3
:103FF000954E0000BD490000BD4E0000FD4400008C
:104000003D4D0000D9430000D549000080B588B07F
:1040100000AFF860B9607A603B60FB68BB61BB6968
:10402000002B01D172B6FEE7BB68002B03D1BB6940
:104030001B6C002B01D1012300E00023002B01D1D8
:1040400072B6FEE73B68022B03D1BB69DB6B012B29
:1040500001D1012300E00023002B01D172B6FEE75D
:104060002D4B984703007B61BB699A6BBB69DB6B87
:104070009A4202D33B68022B42D11323FB18BA6940
:104080004521525C1A703A68B968BB691800234B25
:1040900098471323FB181B785BB2013324D1BB690B
:1040A0009B6C002B0ED03A68BB69110018001C4BAA
:1040B0009847031E21D07B68002B1ED07B6801220D
:1040C0001A601AE0BB695B6A002B16D0BB69243307
:1040D0001800144B9847031E0FD07B68002B0CD0A0
:1040E0007B6801221A6008E01323FB181B78013358
:1040F000DBB259B2BB69452299540123FB6101E04F
:104100000023FB617B691800074B9847FB69180087
:10411000BD4608B080BDC046253B0000CD42000032
:10412000AD450000D54D0000313B000080B58AB0A0
:1041300000AFF860B9607A6000237B62FB683B6285
:104140003B6A002B01D172B6FEE7BB68002B03D19E
:104150003B6A1B6C002B01D1012300E00023002BE4
:1041600001D172B6FEE74C4B9847031E02D17B6823
:10417000002B01D1012300E00023002B01D172B6F6
:10418000FEE7464B98473B6A9B6BFB61FB69002B44
:104190001AD0BA683B6A11001800414B9847FB6976
:1041A0005A1E3B6A9A633B6A1B69002B08D03B6A24
:1041B000103318003B4B9847031E01D03A4B9847E9
:1041C0003A4B9847012362E07B68002B03D1374BC1
:1041D000984700235BE07B6A002B06D11423FB1871
:1041E0001800334B984701237B62304B9847314B83
:1041F00098472A4B98473B6A44229B5C5BB2013349
:1042000003D13B6A4422002199543B6A45229B5CBE
:104210005BB2013303D13B6A452200219954234B01
:1042200098473A1D1423FB1811001800224B984799
:10423000031E1ED13B6A1800204B9847031E11D065
:104240003B6A24337A68110018001D4B98473B6A7B
:1042500018001C4B98471C4B9847031E91D1124BDA
:1042600098478EE73B6A1800164B9847164B9847BD
:1042700087E73B6A1800134B9847134B98473B6AF4
:1042800018000E4B9847031E00D17AE70023180050
:10429000BD460AB080BDC0460D510000D13A0000B5
:1042A00089430000D54D0000B13A0000F53A000006
:1042B000954E0000BD490000BD4E0000C9440000FD
:1042C0003D4D0000D9430000D549000080B586B0BF
:1042D00000AFF860B9607A6000233B61FB689B6BBC
:1042E0007B61FB681B6C002B43D07B68002B19D1D2
:1042F000FB689868FB681A6CBB681900214B9847EB
:10430000FB689A68FB681B6CD218FB689A60FB68B4
:104310009A68FB685B689A422BD3FB681A68FB6853
:104320009A6026E0FB68D868FB681A6CBB681900C5
:10433000144B9847FB68DA68FB681B6C5B42D21829
:10434000FB68DA60FB68DA68FB681B689A4207D290
:10435000FB685A68FB681B6C5B42D218FB68DA602A
:104360007B68022B05D17B69002B02D07B69013B66
:104370007B617B695A1CFB689A633B691800BD46E8
:1043800006B080BDB95D000080B582B000AF786036
:1043900039607B681B6C002B18D07B68DA687B68FF
:1043A0001B6CD2187B68DA607B68DA687B685B68B4
:1043B0009A4203D37B681A687B68DA607B68D968A5
:1043C0007B681A6C3B681800024B9847C046BD4694
:1043D00002B080BDB95D000080B584B000AF7860E8
:1043E000344B98470F23FB187A684521525C1A70AA
:1043F00022E07B689B6C002B09D07B6800211800B1
:104400002D4B9847031E0FD02C4B98470CE07B6830
:104410005B6A002B17D07B6824331800284B984721
:10442000031E01D0254B98470F23FB181B78013B37
:10443000DAB20F23FB181A700F23FB181B785BB23C
:10444000002BD6DC00E0C0467B684522FF21995452
:104450001C4B9847174B98470E23FB187A6844214A
:10446000525C1A7014E07B681B69002B17D07B68C4
:1044700010331800124B9847031E01D00F4B98477A
:104480000E23FB181B78013BDAB20E23FB181A70BF
:104490000E23FB181B785BB2002BE4DC00E0C04667
:1044A0007B684422FF219954064B9847C046BD467D
:1044B00004B080BDD13A0000AD450000694F000056
:1044C000D54D0000F53A000080B584B000AF7860AB
:1044D000084B98477B689B6B002B02D10123FB6044
:1044E00001E00023FB60044B9847FB681800BD46C1
:1044F00004B080BDD13A0000F53A000080B584B028
:1045000000AF7860094B98477B689A6B7B68DB6BE0
:104510009A4202D10123FB6001E00023FB60044BBF
:104520009847FB681800BD4604B080BDD13A000032
:10453000F53A000080B586B000AFF860B9607A60E7
:10454000FB687B61154B98477B6944229B5C5BB29F
:10455000013303D17B694422002199547B694522B0
:104560009B5C5BB2013303D17B69452200219954E6
:104570000B4B98477B699B6B002B06D17B692433DF
:104580007A68B9681800074B98477B691800064B92
:104590009847C046BD4606B080BDC046D13A00002F
:1045A000F53A0000814D0000D943000080B586B087
:1045B00000AF786039607B689B6C3B6100237B6156
:1045C0003B69002B01D172B6FEE73B699A6B3B69F0
:1045D000DB6B9A4201D372B6FEE73B699A6B3B698B
:1045E000DB6B9A422AD20F23FB183A694521525CB1
:1045F0001A703A68391D3B691800134B984703003D
:104600007B610F23FB181B785BB201330DD13B6933
:104610005B6A002B12D03B69243318000B4B984780
:10462000031E0BD001237B6108E00F23FB181B78CE
:104630000133DBB259B23B69452299547B691800BA
:10464000BD4606B080BDC046CD420000D54D00003D
:1046500090B58DB004AFF860B9603B60BB1D1A80A7
:10466000BB1D1B889B0018001D4B984703007B61F6
:104670007B69002B10D04C20194B98470300FB613D
:10468000FB69002B03D0FB697A691A6306E07B693A
:104690001800144B984701E00023FB61FB69002BD5
:1046A00016D0BB1D1A883C68B968F86800230393CC
:1046B000FB6902937B6B01933B6B009323000A4CD5
:1046C000A047FB691800094B98470123BB6102E032
:1046D00001235B42BB61BB691800BD4609B090BDB8
:1046E000FD3B0000913C0000F1460000F547000052
:1046F00080B586B000AFF860B9607A603B60BB6A95
:10470000186B7B689B001A00A521364B9847BB6A43
:104710001A6B7B6834498C4663449B00D3183B6119
:104720003B69072293433B613B690722134001D059
:1047300072B6FEE700237B6113E0BA687B69D31889
:104740001878BA6A34217B69D3185B18021C1A7076
:10475000BA687B69D3181B78002B06D07B690133BC
:104760007B617B69072BE8D900E0C046BB6A3B222E
:10477000002199543B6A042B01D904233B62BB6A94
:104780003A6ADA62BB6A04331800184B9847BB6A6E
:1047900018331800154B9847BB6ABA6A1A613B6A0E
:1047A0000522D21ABB6A9A61BB6ABA6A5A62BB6AAC
:1047B00000225A64BB6A4822002199543A68F96879
:1047C0003B6918000A4B98470200BB6A1A607B6A73
:1047D000002B02D07B6ABA6A1A60C046BD4606B09A
:1047E00080BDC046CB5D0000FFFFFF3F7D3800006D
:1047F0009539000080B582B000AF78602B4B9847A8
:104800002B4B1B685A1C2A4B1A602A4B1B68002B27
:1048100009D1284B7A681A60254B1B68012B10D1EF
:10482000254B98470DE0254B1B68002B09D1214BE8
:104830001B68DA6A7B68DB6A9A4202D81D4B7A6889
:104840001A601F4B1B685A1C1D4B1A601C4B1A68C0
:104850007B68DA637B68DA6A1A4B1B689A4203D971
:104860007B68DA6A174B1A607B68DA6A13009B0070
:104870009B189B00144A9A187B6804331900100097
:10488000124B9847124B98470C4B1B68002B08D0D3
:10489000084B1B68DA6A7B68DB6A9A4201D20D4BCF
:1048A0009847C046BD4602B080BDC046D13A000020
:1048B000D826002000260020A54F0000E426002076
:1048C000F4260020E0260020042600209338000073
:1048D000F53A0000B13A000080B584B000AF7860CE
:1048E0000023FB607B68002B10D00D4B1B68002B56
:1048F00001D072B6FEE70B4B98477B680021180089
:10490000094B9847094B98470300FB60FB68002B55
:1049100001D1074B9847C046BD4604B080BDC04694
:1049200000270020BD490000D5530000D5490000F4
:10493000B13A000090B585B002AF80239A001649C5
:104940001648174B0193002300930023154CA047F2
:1049500003007B607B68012B03D1134B9847030056
:104960007B607B68012B0DD172B6104B0122524245
:104970001A600F4B01221A600E4B00221A600E4B78
:10498000984704E07B68013301D172B6FEE7C04668
:10499000BD4603B090BDC046E05E00007D4F000004
:1049A000FC2600205146000089540000F826002013
:1049B000E4260020DC260020593A000080B500AF34
:1049C000034B1B685A1C024B1A60C046BD4680BD93
:1049D0000027002080B584B000AF0023FB600023D7
:1049E000BB603A4B1B68002B01D172B6FEE7384B17
:1049F0009847364B1B685A1E344B1A60334B1B6862
:104A0000002B5BD1334B1B68002B57D02FE0324B70
:104A1000DB68DB68FB60FB68183318002F4B984796
:104A2000FB68043318002D4B9847FB68DA6A2C4B5F
:104A30001B689A4203D9FB68DA6A294B1A60FB6843
:104A4000DA6A13009B009B189B00264A9A18FB68A1
:104A5000043319001000244B9847FB68DA6A234B93
:104A60001B68DB6A9A4202D3214B01221A601A4B5F
:104A70001B68002BCBD1FB68002B01D01D4B984746
:104A80001D4B1B687B607B68002B0FD01B4B98472E
:104A9000031E02D0164B01221A607B68013B7B602B
:104AA0007B68002BF2D1144B00221A60104B1B685C
:104AB000002B03D00123BB60114B9847114B984743
:104AC000BB681800BD4604B080BDC046002700206A
:104AD000D13A0000D8260020982600204339000053
:104AE000E026002004260020933800000026002045
:104AF000EC260020C5500000E8260020254B0000D1
:104B0000B13A0000F53A000080B582B000AF044B26
:104B10001B687B607B681800BD4602B080BDC04644
:104B2000DC26002080B586B000AF00237B614C4BB3
:104B30001B68002B00D083E04A4B1B6801333B61AC
:104B4000484B3A691A603B69002B17D1464B1B68EA
:104B50001B68002B01D072B6FEE7434B1B68FB605D
:104B6000424B1A68404B1A60404BFA681A60404B3F
:104B70001B685A1C3E4B1A603E4B98473E4B1B68C5
:104B80003A699A424ED3384B1B681B68002B01D1FF
:104B9000012300E00023002B04D0374B01225242B6
:104BA0001A603FE0304B1B68DB68DB68BB60BB68AA
:104BB0005B687B603A697B689A4203D22E4B7A68C5
:104BC0001A602FE0BB68043318002C4B9847BB6871
:104BD0009B6A002B04D0BB6818331800274B9847FA
:104BE000BB68DA6A264B1B689A4203D9BB68DA6A4B
:104BF000234B1A60BB68DA6A13009B009B189B006A
:104C0000204A9A18BB680433190010001E4B9847BD
:104C1000BB68DA6A1D4B1B68DB6A9A42B3D3012377
:104C20007B61B0E7194B1B68DA6A164913009B00D9
:104C30009B189B005B58012B07D901237B6104E083
:104C4000134B1B685A1C124B1A60124B1B68002B2B
:104C500001D001237B617B691800BD4606B080BD91
:104C600000270020DC26002090260020942600202B
:104C7000F0260020C5500000F8260020433900002F
:104C8000E0260020042600209338000000260020A3
:104C9000E8260020EC26002080B582B000AF224B31
:104CA0001B68002B03D0214B01221A6037E01F4BF9
:104CB00000221A601E4B1B687B6007E07B68002B9C
:104CC00001D172B6FEE77B68013B7B6019497A68C7
:104CD00013009B009B189B005B58002BEED07A685A
:104CE00013009B009B189B00124A9B183B603B687B
:104CF0005B685A683B685A603B685A683B6808338F
:104D00009A4204D13B685B685A683B685A603B68CA
:104D10005B68DA68084B1A60054B7A681A60C0460F
:104D2000BD4602B080BDC04600270020EC26002012
:104D3000E0260020042600200026002080B582B056
:104D400000AF786039607B68002B01D172B6FEE756
:104D5000084B1B6818331A007B6811001800064BBB
:104D600098473B6801211800044B9847C046BD4650
:104D700002B080BD00260020D7380000D5530000C7
:104D800080B584B000AFF860B9607A60FB68002B32
:104D900001D172B6FEE70C4B1B6818331A00FB6892
:104DA00011001800094B98477B68002B02D00123A3
:104DB0005B42BB607A68BB6811001800044B9847DF
:104DC000C046BD4604B080BD0026002093380000D8
:104DD000D553000080B584B000AF78607B68DB6895
:104DE000DB68BB60BB68002B01D172B6FEE7BB6815
:104DF000183318001F4B98471F4B1B68002B1DD101
:104E0000BB68043318001B4B9847BB68DA6A1B4B1E
:104E10001B689A4203D9BB68DA6A184B1A60BB68F0
:104E2000DA6A13009B009B189B00154A9A18BB680E
:104E3000043319001000134B984707E0BB68183380
:104E40001A00114B110018000E4B9847BB68DA6A24
:104E50000E4B1B68DB6A9A4205D90123FB600C4BA1
:104E600001221A6001E00023FB60FB681800BD46C8
:104E700004B080BD4339000000270020E026002058
:104E800004260020933800009826002000260020E9
:104E9000EC26002080B582B000AF7860054B1A6820
:104EA0007B681A60044B1A687B685A60C046BD462E
:104EB00002B080BDF0260020DC26002080B586B040
:104EC00000AF786039607B68002B01D172B6FEE7D5
:104ED0003B68002B01D172B6FEE71E4B98471E4B74
:104EE0001B683B617B685B683A69D31AFB603B686F
:104EF0001B68013302D100237B6124E07B681A68C0
:104F0000164B1B689A4207D07B685A683B699A42E5
:104F100002D801237B6116E03B681A68FB689A425D
:104F20000CD93B681A68FB68D21A3B681A607B6828
:104F300018000B4B984700237B6104E03B6800227C
:104F40001A6001237B61074B98477B691800BD46B7
:104F500006B080BDD13A0000DC260020F0260020FB
:104F6000954E0000F53A000080B500AF024B0122DB
:104F70001A60C046BD4680BDEC26002080B582B0D8
:104F800000AF7860044B9847044B1B68012BF9D99C
:104F9000034B9847F6E7C046315000000426002036
:104FA000B13A000080B582B000AF00237B600CE016
:104FB0007A6813009B009B189B00144A9B181800EA
:104FC000134B98477B6801337B607B68042BEFD9D8
:104FD000104B18000E4B98470F4B18000C4B98477E
:104FE0000E4B18000A4B98470D4B1800084B98477A
:104FF0000C4B1800064B98470B4B064A1A600B4B9C
:10500000054A1A60C046BD4602B080BD0426002095
:1050100041380000682600207C26002098260020C9
:10502000AC260020C42600209026002094260020D4
:1050300080B582B000AF1AE0114B9847114BDB6886
:10504000DB687B607B68043318000F4B98470F4B7D
:105050001B685A1E0D4B1A600D4B1B685A1E0C4BD9
:105060001A600C4B98477B6818000B4B9847084B0D
:105070001B68002BE0D1C046BD4602B080BDC046D3
:10508000D13A0000AC26002043390000D826002089
:10509000C0260020F53A00009D50000080B582B087
:1050A00000AF78607B681B6B1800054B98477B68E6
:1050B0001800034B9847C046BD4602B080BDC046AD
:1050C000913C000080B582B000AF0E4B1B681B689E
:1050D000002B01D1012300E00023002B04D00A4B58
:1050E000012252421A6008E0064B1B68DB68DB684D
:1050F0007B607B685A68044B1A60C046BD4602B0AC
:1051000080BDC04690260020F826002080B582B0E1
:1051100000AF0A4B1B68002B02D101237B6008E023
:10512000074B1B68002B02D102237B6001E00023A8
:105130007B607B681800BD4602B080BDE42600207D
:105140000027002080B588B000AFF860B9603B60F0
:10515000FB1D1A700123FB61FB68002B01D172B6A5
:10516000FEE7FB68BB61394B98473B68002B03D0D7
:10517000BB695A6C3B681A601723FB18BA6948214F
:10518000525C1A70BB69482202219954FB1D1B789E
:10519000042B22D89A002E4BD3181B689F46BB695C
:1051A0005A6CBB681A43BB695A6416E0BB695B6CF6
:1051B0005A1CBB695A6410E0BB69BA685A640CE0B7
:1051C0001723FB181B78022B03D0BB69BA685A64FB
:1051D00003E00023FB6100E0C0461723FB181B78A7
:1051E000012B2BD1BB69043318001A4B9847BB69BC
:1051F000DA6A194B1B689A4203D9BB69DA6A164B03
:105200001A60BB69DA6A13009B009B189B00134A63
:105210009A18BB69043319001000114B9847BB69F9
:105220009B6A002B01D072B6FEE7BB69DA6A0D4BB0
:105230001B68DB6A9A4201D90B4B98470B4B984786
:10524000FB691800BD4608B080BDC046D13A0000D9
:10525000F85E000043390000E0260020042600200C
:105260009338000000260020B13A0000F53A000013
:1052700080B588B000AFF860B9603B60FB1D1A7064
:105280000123FB61FB68002B01D172B6FEE7FB68CE
:10529000BB61454B984703007B613B68002B03D003
:1052A000BB695A6C3B681A601323FB18BA69482122
:1052B000525C1A70BB69482202219954FB1D1B786D
:1052C000042B22D89A00394BD3181B689F46BB6920
:1052D0005A6CBB681A43BB695A6416E0BB695B6CC5
:1052E0005A1CBB695A6410E0BB69BA685A640CE086
:1052F0001323FB181B78022B03D0BB69BA685A64CE
:1053000003E00023FB6100E0C0461323FB181B7879
:10531000012B40D1BB699B6A002B01D072B6FEE71E
:10532000234B1B68002B1DD1BB6904331800214B94
:105330009847BB69DA6A204B1B689A4203D9BB695C
:10534000DA6A1D4B1A60BB69DA6A13009B009B186E
:105350009B001A4A9A18BB69043319001000184BB5
:10536000984707E0BB6918331A00164B1100180064
:10537000134B9847BB69DA6A134B1B68DB6A9A4286
:1053800009D9BB6A002B03D0BB6A01221A6002E074
:105390000E4B01221A607B6918000D4B9847FB6980
:1053A0001800BD4608B080BD253B00000C5F000022
:1053B0000027002043390000E026002004260020BA
:1053C000933800009826002000260020EC260020BC
:1053D000313B000080B584B000AF78603960214B6C
:1053E0001B68FB60204B1B68043318001F4B984759
:1053F0007B6801330BD13B68002B08D01A4B1B682C
:105400001A1D1B4B110018001A4B984726E0FA682A
:105410007B68D318BB60144B1B68BA685A60BA68C3
:10542000FB689A4209D2144B1A680F4B1B6804336D
:1054300019001000114B984710E0114B1A680A4BE5
:105440001B680433190010000C4B98470D4B1B6868
:10545000BA689A4202D20B4BBA681A60C046BD467F
:1054600004B080BDDC260020002600204339000067
:10547000C42600209338000094260020D73800006E
:1054800090260020F826002090B585B002AF0023BA
:105490007B600E4B98470E4B1B68002B0CD0802373
:1054A0005A000C490C480D4B019302230093002332
:1054B0000B4CA04703007B607B68002B01D172B6C8
:1054C000FEE77B681800BD4603B090BDC9590000D7
:1054D00034270020205F00000956000038270020F4
:1054E0005146000090B589B000AFF860B9607A60AD
:1054F0003B600023FB61FB68002B01D172B6FEE725
:105500001E4B1B68002B33D01023FB18BA681A609F
:105510001023FB187A685A601023FB18FA689A6007
:10552000BB68052B1ADC164B98470300022B0AD1E7
:10553000124B18683A6B1023F9180023114CA0473E
:105540000300FB6114E00D4B18681023F9180023C9
:1055500000220C4CA0470300FB6109E0074B1868D0
:105560003A681023F9180023074CA0470300FB6199
:10557000FB691800BD4609B090BDC0463427002025
:105580000D5100002D3E00000D40000090B587B089
:1055900002AF78603960184B1B68DB68DB68FB6022
:1055A000FB6804331800154B9847FB68DB69012B37
:1055B00019D1FB689A697B68D1187B683A68F868EA
:1055C0000F4CA047031E0ED07A68F86800230093A2
:1055D000002300210B4CA0470300BB60BB68002BDD
:1055E00001D172B6FEE7FB685B6AFA681000984763
:1055F000C046BD4605B090BD2C27002043390000B1
:1056000069570000E554000080B584B000AF7860B1
:105610000823FB181800064B98470300FB60BA6884
:10562000FB6811001800034B9847034B9847EFE7BE
:10563000E15600003D560000F157000080B584B0EF
:1056400000AF786039601E4B98470823FB1818009C
:105650001C4B98470300FB60BB68002B29D13B68BB
:10566000002B0CD17A68FB689A4208D8164B9847F1
:10567000FA687B6811001800144B98471BE03B68E0
:10568000002B06D0124B1B681B685A425341DBB2F9
:105690003B60104B18687A68FB68D31A3A681900A7
:1056A0000D4B9847084B9847031E04D10B4B984766
:1056B00001E0054B9847C046BD4604B080BDC046DA
:1056C000BD49000021570000D54900008D5500005C
:1056D000302700203427002035450000B13A000073
:1056E00080B584B000AF78600C4B1B681B685A42D1
:1056F0005341DBB21A007B681A607B681B68002B81
:1057000005D1064B1B68DB681B68FB6001E00023CA
:10571000FB60FB681800BD4604B080BD2C2700204C
:1057200080B584B000AF78600C4B98470300FB60F5
:105730000B4B1B68FA689A4205D20A4B98477B6864
:1057400001221A6002E07B6800221A60044BFA68AA
:105750001A60FB681800BD4604B080BD094B00000C
:105760003C2700200959000080B586B000AFF860E2
:10577000B9607A603B6000237B61FB68BA685A605D
:10578000FB68FA681A61BA687B689A4212D87A682C
:105790003B68D21AFB689B699A4202D301237B6162
:1057A0001BE0104B1A68FB680433190010000E4B05
:1057B000984712E07A683B689A4206D2BA683B681A
:1057C0009A4202D301237B6107E0084B1A68FB6809
:1057D000043319001000044B98477B691800BD463C
:1057E00006B080BD30270020D73800002C270020CD
:1057F00090B58BB002AF68E00823FB181B68002B44
:1058000063DB0823FB189B68FB61FB695B69002B6A
:1058100004D0FB6904331800334B98473B1D180034
:10582000324B98470300BB610823FB181B68092B08
:105830004AD89A002E4BD3181B689F460823FB18A2
:105840005A68FB699B69D1180823FB185B68BA6921
:10585000F869284CA047031E37D0FB695B6AFA69D8
:1058600010009847FB69DB69012B2ED10823FB1838
:105870005A68FB699B69D218F869002300930023DA
:1058800000211D4CA04703007B617B69002B1CD1CC
:1058900072B6FEE70823FB185A68FB699A61FB6938
:1058A0009B69002B01D172B6FEE7FB699A69BB695F
:1058B000D118BB69BA69F8690E4CA04705E0FB69CD
:1058C00018000E4B984700E0C0460D4B1B6808229D
:1058D000B918002218000B4B9847031E8CD1C04604
:1058E000BD4609B090BDC0464339000021570000B5
:1058F000285F000069570000E5540000913C00005B
:10590000342700202D41000090B589B002AF3EE061
:10591000284B1B68DB681B687B61264B1B68DB68B8
:10592000DB683B613B6904331800234B98473B69B4
:105930005B6A3A69100098473B69DB69012B26D105
:105940003B699A697B69D318FB60FA687B699A4264
:105950000ED93B69FA685A603B693A691A61154B7E
:105960001A683B69043319001000144B98470EE085
:105970007A6938690023009300230021104CA04766
:105980000300BB60BB68002B01D172B6FEE7094B78
:105990001B681B68002BBBD1064B1B687B60094B47
:1059A0001A68044B1A60074B7A681A60C046BD46F5
:1059B00007B090BD2C27002043390000D7380000E5
:1059C000E55400003027002080B500AF104B984709
:1059D000104B1B68002B15D10F4B18000F4B98472D
:1059E0000F4B18000D4B98470E4B0B4A1A600E4B8D
:1059F0000B4A1A6000220C2102200C4B984702002F
:105A0000044B1A600A4B9847C046BD4680BDC0464D
:105A1000D13A00003427002004270020413800003C
:105A2000182700202C27002030270020693D000087
:105A3000F53A00008446101C62468C46191C6346E9
:105A400000E0C0461FB500F0D1F8002801D40021C5
:105A5000C8421FBD10B500F02BF84042013010BD08
:105A600010B500F0C3F8002801DB002010BD0120B4
:105A700010BDC04610B500F0B9F8002801DD0020C7
:105A800010BD012010BDC04610B500F04BF8002835
:105A900001DC002010BD012010BDC04610B500F093
:105AA00041F8002801DA002010BD012010BDC046D9
:105AB000F0B54F464646D6465C00C0B51F03DB0F27
:105AC0009A46174B0E034D0084468046360B6D0DEB
:105AD000C90F91463F0B640D01209D4208D09C42A6
